:020000040800F2
:100000000000012005EB0008F9DC000807DD00080E
:100010000DDD000813DD000819DD000800000000F8
:100020000000000000000000000000001FDD0008CC
:100030002DDD0008000000003BDD000849DD000860
:1000400055EB000855EB000855EB000855EB000890
:1000500055EB000855EB000855EB000855EB000880
:1000600055EB000855EB000855EB000855EB000870
:1000700055EB000855EB000855EB000855DD00086E
:1000800055EB000855EB000855EB00080000000098
:1000900000000000000000000000000055EB000818
:1000A00055EB000855EB000855EB000869DD00082A
:1000B00055EB000855EB000855EB00087DDD000806
:1000C00055EB000855EB000855EB000855EB000810
:1000D00091DD000855EB000855EB0008000000001A
:1000E00055EB000855EB000855EB00080000000038
:1000F00000000000000000000000000055EB0008B8
:100100000000000055EB000855EB000855EB000817
:1001100000000000000000000000000000000000DF
:1001200055EB000855EB000855EB000855EB0008AF
:1001300055EB000800000000000000000000000077
:10014000000000000000000000000000A5DD000825
:1001500055EB000855EB000855EB000855EB00087F
:1001600055EB000855EB00080000000000000000FF
:10017000000000000000000000000000000000007F
:100180000000000055EB0008000000000000000027
:0401900055EB000823
:1001980010B5054C237833B9044B13B10448AFF3B9
:1001A80000800123237010BDFC0100200000000026
:1001B800ACF4000808B5034B1BB103490348AFF37F
:1001C800008008BD0000000000020020ACF4000818
:1001D80081F0004102E000BF83F0004330B54FEAF0
:1001E80041044FEA430594EA050F08BF90EA020F5D
:1001F8001FBF54EA000C55EA020C7FEA645C7FEAF0
:10020800655C00F0E2804FEA5454D4EB5555B8BF12
:100218006D420CDD2C4480EA020281EA030382EA83
:10022800000083EA010180EA020281EA0303362D15
:1002380088BF30BD11F0004F4FEA01314FF4801CE8
:100248004CEA113102D0404261EB410113F0004FFA
:100258004FEA03334CEA133302D0524263EB4303B1
:1002680094EA050F00F0A780A4F10104D5F1200E4F
:100278000DDB02FA0EFC22FA05F2801841F10001AA
:1002880003FA0EF2801843FA05F359410EE0A5F17E
:1002980020050EF1200E012A03FA0EFC28BF4CF0AF
:1002A800020C43FA05F3C01851EBE37101F0004565
:1002B80007D54FF0000EDCF1000C7EEB00006EEB72
:1002C8000101B1F5801F1BD3B1F5001F0CD34908FC
:1002D8005FEA30004FEA3C0C04F101044FEA445253
:1002E80012F5800F80F09A80BCF1004F08BF5FEADA
:1002F800500C50F1000041EB045141EA050130BDBA
:100308005FEA4C0C404141EB010111F4801FA4F15C
:100318000104E9D191F0000F04BF01460020B1FAB1
:1003280081F308BF2033A3F10B03B3F120020CDAE9
:100338000C3208DD02F1140CC2F10C0201FA0CF0C7
:1003480021FA02F10CE002F11402D8BFC2F1200C2C
:1003580001FA02F120FA0CFCDCBF41EA0C019040E2
:10036800E41AA2BF01EB0451294330BD6FEA04042B
:100378001F3C1CDA0C340EDC04F11404C4F1200216
:1003880020FA04F001FA02F340EA030021FA04F328
:1003980045EA030130BDC4F10C04C4F1200220FA7F
:1003A80002F001FA04F340EA0300294630BD21FABD
:1003B80004F0294630BD94F0000F83F4801306BF83
:1003C80081F480110134013D4EE77FEA645C18BF77
:1003D8007FEA655C29D094EA050F08BF90EA020F0E
:1003E80005D054EA000C04BF1946104630BD91EA06
:1003F800030F1EBF0021002030BD5FEA545C05D109
:100408004000494128BF41F0004130BD14F5800447
:100418003CBF01F5801130BD01F0004545F0FE41BB
:1004280041F470014FF0000030BD7FEA645C1ABFF0
:10043800194610467FEA655C1CBF0B46024650EA27
:10044800013406BF52EA033591EA030F41F4002153
:1004580030BD00BF90F0000F04BF0021704730B5D9
:100468004FF4806404F132044FF000054FF00001AE
:1004780050E700BF90F0000F04BF0021704730B56F
:100488004FF4806404F1320410F0004548BF404244
:100498004FF000013EE700BF42004FEAE2014FEA99
:1004A80031014FEA02701FBF12F07F4393F07F4F74
:1004B80081F06051704732F07F4208BF704793F077
:1004C8007F4F04BF41F40021704730B54FF460748A
:1004D80001F0004521F000411CE700BF50EA01028D
:1004E80008BF704730B54FF000050AE050EA010236
:1004F80008BF704730B511F0004502D5404261EBA6
:1005080041014FF4806404F132045FEA915C3FF4E6
:10051800D8AE4FF003025FEADC0C18BF03325FEA83
:10052800DC0C18BF033202EBDC02C2F1200300FA34
:1005380003FC20FA02F001FA03FE40EA0E0021FA59
:1005480002F11444BDE600BF70B54FF0FF0C4CF447
:10055800E06C1CEA11541DBF1CEA135594EA0C0FF9
:1005680095EA0C0F00F0DEF82C4481EA030621EA34
:100578004C5123EA4C5350EA013518BF52EA03356F
:1005880041F4801143F4801338D0A0FB02CE4FF021
:100598000005E1FB02E506F00042E0FB03E54FF051
:1005A8000006E1FB03569CF0000F18BF4EF0010E49
:1005B800A4F1FF04B6F5007F64F5407404D25FEA45
:1005C8004E0E6D4146EB060642EAC62141EA5551F8
:1005D8004FEAC52040EA5E504FEACE2EB4F1FD0C3A
:1005E80088BFBCF5E06F1ED8BEF1004F08BF5FEAB8
:1005F800500E50F1000041EB045170BD06F000466A
:1006080046EA010140EA020081EA0301B4EB5C0416
:10061800C2BFD4EB0C0541EA045170BD41F480110E
:100628004FF0000E013C00F3AB8014F1360FDEBF33
:10063800002001F0004170BDC4F10004203C35DA0F
:100648000C341BDC04F11404C4F1200500FA05F392
:1006580020FA04F001FA05F240EA020001F0004233
:1006680021F0004110EBD37021FA04F642EB0601A9
:100678005EEA430E08BF20EAD37070BDC4F10C04D3
:10068800C4F1200500FA04F320FA05F001FA04F297
:1006980040EA020001F0004110EBD37041F1000183
:1006A8005EEA430E08BF20EAD37070BDC4F120058E
:1006B80000FA05F24EEA020E20FA04F301FA05F2F6
:1006C80043EA020321FA04F001F0004121FA04F29E
:1006D80020EA020000EBD3705EEA430E08BF20EA6E
:1006E800D37070BD94F0000F0FD101F000464000A8
:1006F80041EB010111F4801F08BF013CF7D041EA2A
:10070800060195F0000F18BF704703F0004652002D
:1007180043EB030313F4801F08BF013DF7D043EAFE
:100728000603704794EA0C0F0CEA135518BF95EAB4
:100738000C0F0CD050EA410618BF52EA4306D1D13B
:1007480081EA030101F000414FF0000070BD50EA5A
:10075800410606BF1046194652EA430619D094EAE4
:100768000C0F02D150EA013613D195EA0C0F05D1CE
:1007780052EA03361CBF104619460AD181EA030122
:1007880001F0004141F0FE4141F470014FF00000DA
:1007980070BD41F0FE4141F4780170BD70B54FF075
:1007A800FF0C4CF4E06C1CEA11541DBF1CEA1355F5
:1007B80094EA0C0F95EA0C0F00F0A7F8A4EB0504D7
:1007C80081EA030E52EA03354FEA013100F08880CE
:1007D8004FEA03334FF0805545EA131343EA126397
:1007E8004FEA022245EA111545EA10654FEA00264C
:1007F8000EF000419D4208BF964244F1FD0404F505
:10080800407402D25B084FEA3202B61A65EB030560
:100818005B084FEA32024FF480104FF4002CB6EB1D
:10082800020E75EB030E22BFB61A754640EA0C009D
:100838005B084FEA3202B6EB020E75EB030E22BFDD
:10084800B61A754640EA5C005B084FEA3202B6EB1E
:10085800020E75EB030E22BFB61A754640EA9C00DD
:100868005B084FEA3202B6EB020E75EB030E22BFAD
:10087800B61A754640EADC0055EA060E18D04FEA6B
:10088800051545EA16754FEA06164FEAC30343EA0B
:1008980052734FEAC2025FEA1C1CC0D111F4801FD8
:1008A8000BD141EA00014FF000004FF0004CB6E7D1
:1008B80011F4801F04BF01430020B4F1FD0C88BF70
:1008C800BCF5E06F3FF6AFAEB5EB030C04BFB6EB7B
:1008D800020C5FEA500C50F1000041EB045170BD6E
:1008E8000EF0004E4EEA113114EB5C04C2BFD4EB9B
:1008F8000C0541EA045170BD41F480114FF0000E1F
:10090800013C90E645EA060E8DE60CEA135594EA9A
:100918000C0F08BF95EA0C0F3FF43BAF94EA0C0F9D
:100928000AD150EA01347FF434AF95EA0C0F7FF412
:1009380025AF104619462CE795EA0C0F06D152EA66
:1009480003353FF4FDAE1046194622E750EA41064A
:1009580018BF52EA43067FF4C5AE50EA41047FF45B
:100968000DAF52EA43057FF4EBAE12E74FEA4102BE
:10097800B2F1E04324BFB3F5001CDCF1FE5C0DD9F5
:1009880001F0004C4FEAC0024CEA5070B2F1004F3F
:1009980040EB830008BF20F00100704711F0804F42
:1009A80021D113F13872BCBF01F00040704741F407
:1009B80080114FEA5252C2F11802C2F1200C10FA0B
:1009C8000CF320FA02F018BF40F001004FEAC123EF
:1009D8004FEAD32303FA0CFC40EA0C0023FA02F393
:1009E8004FEA4303CCE77FEA625307D150EA013369
:1009F8001EBF4FF0FE4040F44000704701F0004039
:100A080040F0FE4040F40000704700BF53B94AB9B7
:100A1800002908BF00281CBF4FF0FF314FF0FF30FE
:100A280000F072B9ADF1080C6DE904CE00F006F8DB
:100A3800DDF804E0DDE9022304B070472DE9F04752
:100A4800089E04468846002B4BD18A42154667D932
:100A5800B2FA82F24AB1C2F1200701FA02F320FA8F
:100A680007F7954047EA030894404FEA154E230CD0
:100A7800B8FBFEF71FFA85FC0EFB178843EA08430C
:100A880007FB0CF1994209D9EB1807F1FF3080F008
:100A98001B81994240F21881023F2B445B1AA4B291
:100AA800B3FBFEF00EFB103344EA034400FB0CFCDE
:100AB800A44509D92C1900F1FF3380F00781A4451A
:100AC80040F2048102382C4440EA0740A4EB0C04AD
:100AD80000271EB1D4400023C6E900433946BDE8CB
:100AE800F0878B4209D9002E00F0EB800027C6E979
:100AF800000138463946BDE8F087B3FA83F7002F7E
:100B080047D18B4202D3824200F2FA80841A61EB09
:100B1800030301209846002EE0D0C6E90048DDE72F
:100B280002B9FFDEB2FA82F2002A40F08F80491B38
:100B38004FEA154E1FFA85F80127B1FBFEFC230C7E
:100B48000EFB1C1143EA014308FB0CF1994207D93B
:100B5800EB180CF1FF3002D2994200F2CD808446A6
:100B6800591AA3B2B1FBFEF00EFB101443EA044479
:100B780008FB00F8A04507D92C1900F1FF3302D271
:100B8800A04500F2B6801846A4EB080440EA0C40E1
:100B98009FE7C7F1200CBB4022FA0CFE4EEA030E79
:100BA80001FA07F420FA0CF521FA0CF34FEA1E4873
:100BB8002543B3FBF8F92C0C08FB19331FFA8EFAFE
:100BC80044EA034309FB0AF49C4202FA07F200FADA
:100BD80007F10BD91EEB030309F1FF3080F0878082
:100BE8009C4240F28480A9F1020973441B1BADB2F8
:100BF800B3FBF8F008FB103345EA034400FB0AFA9C
:100C0800A24508D91EEB040400F1FF336BD2A245BC
:100C180069D90238744440EA0940A0FB0289A4EB70
:100C28000A044C45C2464B4654D351D0002E69D0D5
:100C3800B1EB0A0564EB030404FA0CFCFD40FC402C
:100C48004CEA0505C6E90054002747E7C2F120032E
:100C580020FA03F7954001FA02F021FA03F34FEA6C
:100C6800154E3843010CB3FBFEF71FFA85F80EFB4F
:100C7800173341EA034107FB08F38B4204FA02F4F5
:100C880007D9691807F1FF3C2FD28B422DD9023FB3
:100C98002944CB1A81B2B3FBFEF00EFB103341EAB4
:100CA800034100FB08F38B4207D9691800F1FF3CA8
:100CB80017D28B4215D902382944C91A40EA074786
:100CC8003BE73746304609E70746E7E61846FBE6BE
:100CD8004145ABD2B8EB020A69EB0E020138134664
:100CE800A4E76046E9E7184695E76746D1E78146F5
:100CF8007CE702382C4447E7ACF1020C2B442FE781
:100D0800384608E73746E9E6704700BF80B500AFC8
:100D18000E4B1B680D4A43F4007313600B4B1B68A2
:100D28000A4A43F480631360084B1B68074A43F47C
:100D380080731360032000F04DF9002000F008F8DC
:100D48000CF0D4FD0023184680BD00BF003C0240D3
:100D580080B582B000AF7860124B1A68124B1B78CE
:100D680019464FF47A73B3FBF1F3B2FBF3F3184669
:100D780000F065F90346002B01D001230EE07B68E3
:100D88000F2B0AD8002279684FF0FF3000F02DF9B8
:100D9800064A7B681360002300E0012318460837E1
:100DA800BD4680BD2801002004000020000000206E
:100DB80080B400AF064B1B781A46064B1B681344D9
:100DC800044A136000BFBD465DF8047B704700BF4E
:100DD800040000205802002080B400AF034B1B68B9
:100DE8001846BD465DF8047B704700BF58020020D6
:100DF80080B584B000AF7860FFF7EEFFB8607B681D
:100E0800FB60FB68B3F1FF3F05D0094B1B781A461E
:100E1800FB681344FB6000BFFFF7DEFF0246BB68B8
:100E2800D31AFA689A42F7D800BF1037BD4680BD7A
:100E38000400002080B485B000AF78607B6803F0C0
:100E48000703FB600C4BDB68BB60BA684FF6FF0317
:100E58001340BB60FB681A02BB68134343F0BF63CF
:100E680043F40033BB60044ABB68D36000BF143747
:100E7800BD465DF8047B704700ED00E080B400AF2C
:100E8800044BDB681B0A03F007031846BD465DF8F0
:100E9800047B704700ED00E080B483B000AF0346E8
:100EA800FB7197F90730002B0BDBFB7903F01F026E
:100EB800074997F907305B09012000FA02F241F867
:100EC800232000BF0C37BD465DF8047B704700BF88
:100ED80000E100E080B483B000AF03463960FB71E5
:100EE80097F90730002B0ADB3B68DAB20C4997F90F
:100EF80007301201D2B20B4483F800230AE03B68A2
:100F0800DAB20849FB7903F00F03043B1201D2B2AD
:100F18000B441A7600BF0C37BD465DF8047B70475A
:100F280000E100E000ED00E080B489B000AFF860B7
:100F3800B9607A60FB6803F00703FB61FB69C3F1E2
:100F48000703042B28BF0423BB61FB690433062B6A
:100F580002D9FB69033B00E000237B614FF0FF32BD
:100F6800BB6902FA03F3DA43BB681A407B699A400B
:100F78004FF0FF317B6901FA03F3D9437B680B40DB
:100F8800134318462437BD465DF8047B70470000BC
:100F980080B582B000AF78607B68013BB3F1807F99
:100FA80001D301230FE00A4A7B68013B53600F21FC
:100FB8004FF0FF30FFF78EFF054B00229A60044B7D
:100FC80007221A60002318460837BD4680BD00BFB7
:100FD80010E000E080B582B000AF78607868FFF775
:100FE80029FF00BF0837BD4680BD80B586B000AF79
:100FF8000346B9607A60FB7300237B61FFF73EFF0D
:1010080078617A68B9687869FFF78EFF024697F9C0
:101018000F3011461846FFF75DFF00BF1837BD4671
:1010280080BD80B582B000AF0346FB7197F90730E9
:101038001846FFF731FF00BF0837BD4680BD80B5B1
:1010480082B000AF78607868FFF7A2FF03461846C1
:101058000837BD4680BD000080B586B000AF786017
:1010680000237B61FFF7B8FE38617B68002B01D154
:10107800012399E07B68002283F834207B680222F0
:1010880083F835207B681B681A687B681B6822F028
:1010980001021A600FE0FFF79FFE02463B69D31A70
:1010A800052B08D97B6820225A657B68032283F8C0
:1010B8003520032378E07B681B681B6803F0010375
:1010C800002BE8D17B681B681B687B617A69384B09
:1010D80013407B617B685A687B689B681A437B680E
:1010E800DB681A437B681B691A437B685B691A4390
:1010F8007B689B691A437B68DB691A437B681B6AB8
:1011080013437A6913437B617B685B6A042B07D1BD
:101118007B68DA6A7B681B6B13437A6913437B61CC
:101128007B681B687A691A607B681B685B697B61EE
:101138007B6923F007037B617B685B6A7A691343E9
:101148007B617B685B6A042B17D17B689B6A7A6931
:1011580013437B617B68DB6A002B0ED0786800F054
:101168000FFB0346002B08D07B6840225A657B683A
:10117800012283F83520012316E07B681B687A6911
:101188005A61786800F0C6FA0346FB607B68DB6D3D
:101198003F229A40FB689A607B6800225A657B6808
:1011A800012283F83520002318461837BD4680BD34
:1011B8003F8010F080B586B000AFF860B9607A6003
:1011C8003B600023FB75FB689B6D3B61FB6893F8F4
:1011D8003430012B01D1022340E0FB68012283F85F
:1011E8003420FB6893F83530DBB2012B2FD1FB6834
:1011F800022283F83520FB6800225A653B687A682A
:10120800B968F86800F058FAFB68DB6D3F229A402D
:101218003B699A60FB681B681A68FB681B6842F0A8
:1012280016021A60FB681B6C002B07D0FB681B6852
:101238001A68FB681B6842F008021A60FB681B68A2
:101248001A68FB681B6842F001021A6005E0FB6837
:10125800002283F834200223FB75FB7D18461837DB
:10126800BD4680BD80B584B000AF78607B689B6D5B
:10127800FB60FFF7B1FDB8607B6893F83530DBB2EF
:10128800022B08D07B6880225A657B68002283F88D
:101298003420012352E07B681B681A687B681B684E
:1012A80022F016021A607B681B685A697B681B6803
:1012B80022F080025A617B681B6C002B03D17B688B
:1012C8009B6C002B07D07B681B681A687B681B68BF
:1012D80022F008021A607B681B681A687B681B6822
:1012E80022F001021A6013E0FFF776FD0246BB68A0
:1012F800D31A052B0CD97B6820225A657B680022FB
:1013080083F834207B68032283F83520032315E013
:101318007B681B681B6803F00103002BE4D17B6822
:10132800DB6D3F229A40FB689A607B68002283F855
:1013380034207B68012283F83520002318461037B3
:10134800BD4680BD80B483B000AF78607B6893F8F9
:101358003530DBB2022B04D07B6880225A6501232A
:101368000CE07B68052283F835207B681B681A68C7
:101378007B681B6822F001021A60002318460C37AC
:10138800BD465DF8047B704780B586B000AF7860D5
:101398000023BB60924B1B68924AA2FB03239B0A63
:1013A8007B617B689B6D3B613B691B68FB607B686D
:1013B800DB6D08229A40FB681340002B1AD07B682B
:1013C8001B681B6803F00403002B13D07B681B68A1
:1013D8001A687B681B6822F004021A607B68DB6D60
:1013E80008229A403B699A607B685B6D43F0010272
:1013F8007B685A657B68DB6D01229A40FB68134065
:10140800002B12D07B681B685B6903F08003002BFC
:101418000BD07B68DB6D01229A403B699A607B6840
:101428005B6D43F002027B685A657B68DB6D0422C2
:101438009A40FB681340002B12D07B681B681B681E
:1014480003F00203002B0BD07B68DB6D04229A406B
:101458003B699A607B685B6D43F004027B685A6560
:101468007B68DB6D10229A40FB681340002B43D049
:101478007B681B681B6803F00803002B3CD07B6863
:10148800DB6D10229A403B699A607B681B681B6879
:1014980003F48023002B18D07B681B681B6803F4B7
:1014A8000023002B08D17B681B6C002B24D07B68A1
:1014B8001B6C786898471FE07B689B6C002B1BD0DF
:1014C8007B689B6C7868984716E07B681B681B688C
:1014D80003F48073002B07D17B681B681A687B684C
:1014E8001B6822F008021A607B681B6C002B03D073
:1014F8007B681B6C786898477B68DB6D20229A4074
:10150800FB681340002B00F08E807B681B681B680B
:1015180003F01003002B00F086807B68DB6D20222F
:101528009A403B699A607B6893F83530DBB2052BAB
:1015380036D17B681B681A687B681B6822F0160224
:101548001A607B681B685A697B681B6822F08002F6
:101558005A617B681B6C002B03D17B689B6C002B4A
:1015680007D07B681B681A687B681B6822F0080232
:101578001A607B68DB6D3F229A403B699A607B6802
:10158800002283F834207B68012283F835207B68A9
:101598001B6D002B7DD07B681B6D7868984778E0C1
:1015A8007B681B681B6803F48023002B1CD07B68B6
:1015B8001B681B6803F40023002B08D17B685B6C55
:1015C800002B30D07B685B6C786898472BE07B6891
:1015D800DB6B002B27D07B68DB6B7868984722E0B1
:1015E80028010020B5814E1B7B681B681B6803F42B
:1015F8008073002B0FD17B681B681A687B681B6897
:1016080022F010021A607B68002283F834207B687D
:10161800012283F835207B68DB6B002B03D07B68C5
:10162800DB6B786898477B685B6D002B32D07B68F2
:101638005B6D03F00103002B22D07B68052283F841
:1016480035207B681B681A687B681B6822F00102DA
:101658001A60BB680133BB607A699A4207D37B681A
:101668001B681B6803F00103002BF2D100E000BFE8
:101678007B68002283F834207B68012283F83520B8
:101688007B68DB6C002B05D07B68DB6C786898473F
:1016980000E000BF1837BD4680BD00BF80B483B0EE
:1016A80000AF78607B6893F83530DBB218460C37AA
:1016B800BD465DF8047B704780B485B000AFF86024
:1016C800B9607A603B60FB681B681A68FB681B6836
:1016D80022F480221A60FB681B683A685A60FB682B
:1016E8009B68402B08D1FB681B687A689A60FB6886
:1016F8001B68BA68DA6007E0FB681B68BA689A601A
:10170800FB681B687A68DA6000BF1437BD465DF86D
:10171800047B704780B485B000AF78607B681B6835
:10172800DBB2103B144AA2FB03231B09FB60134ADC
:10173800FB6813441B781A467B68DA65FB68032B41
:1017480009D97B681B6823F47F7323F003031A1DF0
:101758007B689A6507E07B681B6823F47F7323F036
:1017680003037A6893657B689B6D18461437BD46FA
:101778005DF8047B704700BFABAAAAAA0CF5000865
:1017880080B485B000AF78600023FB737B689B6AE8
:10179800BB607B689B69002B1FD1BB68032B55D8A6
:1017A80001A252F823F000BFC1170008D3170008A0
:1017B800C1170008551800087B68DB6A03F08073BE
:1017C800002B45D00123FB7342E07B68DB6AB3F151
:1017D800C07F3FD10123FB733CE07B689B69B3F575
:1017E800005F21D1BB68032B36D801A252F823F041
:1017F800091800080F18000809180008211800081F
:101808000123FB732FE07B68DB6A03F08073002BF6
:1018180024D00123FB7321E07B68DB6AB3F1C07F2E
:101828001ED10123FB731BE0BB68022B02D9032BDB
:1018380003D018E00123FB7315E07B68DB6A03F033
:101848008073002B0ED00123FB730BE000BF0AE06E
:1018580000BF08E000BF06E000BF04E000BF02E0F0
:1018680000BF00E000BFFB7B18461437BD465DF89B
:10187800047B704780B489B000AF7860396000237A
:101888007B6100233B610023BB610023FB6159E1BD
:101898000122FB6902FA03F37B613B681B687A69E2
:1018A80013403B613A697B699A4240F048813B6842
:1018B8005B68012B0BD03B685B68022B07D03B6849
:1018C8005B68112B03D03B685B68122B30D17B68B7
:1018D8009B68BB61FB695B00032202FA03F3DB43ED
:1018E800BA691340BB613B68DA68FB695B0002FABE
:1018F80003F3BA691343BB617B68BA699A607B6872
:101908005B68BB610122FB6902FA03F3DB43BA6936
:101918001340BB613B685B681B0903F00102FB696C
:1019280002FA03F3BA691343BB617B68BA695A6068
:101938007B68DB68BB61FB695B00032202FA03F387
:10194800DB43BA691340BB613B689A68FB695B007B
:1019580002FA03F3BA691343BB617B68BA69DA60B8
:101968003B685B68022B03D03B685B68122B23D172
:10197800FB69DA087B68083253F82230BB61FB69DF
:1019880003F007039B000F2202FA03F3DB43BA6953
:101998001340BB613B681A69FB6903F007039B00AE
:1019A80002FA03F3BA691343BB61FB69DA087B687F
:1019B8000832B96943F822107B681B68BB61FB6970
:1019C8005B00032202FA03F3DB43BA691340BB61ED
:1019D8003B685B6803F00302FB695B0002FA03F3F0
:1019E800BA691343BB617B68BA691A603B685B6874
:1019F80003F08053002B00F0A2800023FB60564BBD
:101A08005B6C554A43F480435364534B5B6C03F45B
:101A18008043FB60FB68514AFB699B08023352F81C
:101A28002330BB61FB6903F003039B000F2202FA1A
:101A380003F3DB43BA691340BB617B68484A9342AE
:101A480019D07B68474A934213D07B68464A934231
:101A58000DD07B68454A934207D07B68444A93423D
:101A680001D1042308E0072306E0032304E002234E
:101A780002E0012300E00023FA6902F00302920069
:101A88009340BA691343BB613449FB699B0802332D
:101A9800BA6941F82320374B1B68BB613B69DB43BC
:101AA800BA691340BB613B685B6803F48033002B61
:101AB80003D0BA693B691343BB612E4ABB69136003
:101AC8002C4B5B68BB613B69DB43BA691340BB6164
:101AD8003B685B6803F40033002B03D0BA693B69A9
:101AE8001343BB61234ABB695360224B9B68BB61AC
:101AF8003B69DB43BA691340BB613B685B6803F42D
:101B08008013002B03D0BA693B691343BB61194AA0
:101B1800BB699360174BDB68BB613B69DB43BA6900
:101B28001340BB613B685B6803F40013002B03D0D0
:101B3800BA693B691343BB610E4ABB69D360FB6951
:101B48000133FB61FB690F2B7FF6A2AE00BF243780
:101B5800BD465DF8047B70470038024000380140FC
:101B6800000002400004024000080240000C02404D
:101B780000100240003C014080B485B000AF78609E
:101B88000B467B807B681A697B881340002B02D048
:101B98000123FB7301E00023FB73FB7B184614371A
:101BA800BD465DF8047B704780B584B000AF7860AF
:101BB8007B68002B01D101231FE17B6893F83D303E
:101BC800DBB2002B06D17B68002283F83C207868C2
:101BD8000BF0B4FE7B68242283F83D207B681B68E9
:101BE8001A687B681B6822F001021A607B681B6810
:101BF8001A687B681B6842F400421A607B681B689D
:101C08001A687B681B6822F400421A6005F00EF916
:101C1800F8607B685B687B4A934207D8FB687A4A1E
:101C2800934294BF01230023DBB206E0FB68774AA6
:101C3800934294BF01230023DBB2002B01D0012380
:101C4800DBE0FB68724AA2FB03239B0CBB607B684A
:101C58001B685B6823F03F017B681B68BA680A430E
:101C68005A607B681B681B6A23F03F017B685B68CE
:101C7800644A934202D8BB68013309E0BB684FF459
:101C8800967202FB03F3634AA2FB03239B09013309
:101C98007A6812680B4313627B681B68DB6923F45C
:101CA8004F4222F0FF027B685B6856498B420DD891
:101CB800FB68591E7B685B685B00B1FBF3F301337B
:101CC800C3F30B03042B38BF04234FE07B689B68E6
:101CD800002B11D1FB68581E7B6859680B465B00C6
:101CE8000B44B0FBF3F30133C3F30B03002B0CBF1E
:101CF80001230023DBB212E0FB68581E7B68596899
:101D08000B469B000B4499000B44B0FBF3F30133E3
:101D1800C3F30B03002B0CBF01230023DBB2002B02
:101D280001D0012322E07B689B68002B0ED1FB6861
:101D3800581E7B6859680B465B000B44B0FBF3F3F5
:101D48000133C3F30B0343F400430FE0FB68581E51
:101D58007B6859680B469B000B4499000B44B0FB09
:101D6800F3F30133C3F30B0343F440437968096881
:101D78001343CB617B681B681B6823F0C0017B6839
:101D8800DA697B681B6A1A437B681B680A431A6016
:101D98007B681B689B6823F4034323F0FF037A687E
:101DA80011697A68D26811437A6812680B439360A4
:101DB8007B681B68DB6823F0FF017B685A697B68D6
:101DC8009B691A437B681B680A43DA607B681B6857
:101DD8001A687B681B6842F001021A607B6800225F
:101DE8001A647B68202283F83D207B6800221A63EE
:101DF8007B68002283F83E20002318461037BD4632
:101E080080BD00BFA08601007F841E00FF083D0042
:101E180083DE1B43D34D621080B588B002AFF860F3
:101E28007A601A460B467B8113463B81FEF7D4FF46
:101E38007861FB6893F83D30DBB2202B40F0E080FE
:101E48007B690093192301227049F86802F07BF836
:101E58000346002B01D00223D3E0FB6893F83C3003
:101E6800012B01D10223CCE0FB68012283F83C203E
:101E7800FB681B681B6803F00103012B07D0FB6894
:101E88001B681A68FB681B6842F001021A60FB684D
:101E98001B681A68FB681B6822F400621A60FB68FA
:101EA800212283F83D20FB68102283F83E20FB683E
:101EB80000221A64FB687A685A62FB683A895A8574
:101EC800FB685B8D9AB2FB681A85FB68504ADA6238
:101ED80079897B693A6AF86801F04EFE0346002B5F
:101EE80001D001238DE000233B61FB681B685B691F
:101EF8003B61FB681B689B693B613B6966E07A69EB
:101F0800396AF86802F0F5F80346002B0DD0FB6833
:101F18001B6C042B07D1FB681B681A68FB681B68DD
:101F280042F400721A6001236BE0FB685B6A1A785E
:101F3800FB681B681A61FB685B6A5A1CFB685A627B
:101F4800FB685B8D9BB2013B9AB2FB685A85FB68C4
:101F58001B8D013B9AB2FB681A85FB681B685B699D
:101F680003F00403042B1BD1FB681B8D002B17D037
:101F7800FB685B6A1A78FB681B681A61FB685B6A16
:101F88005A1CFB685A62FB685B8D9BB2013B9AB294
:101F9800FB685A85FB681B8D013B9AB2FB681A8562
:101FA8007A69396AF86802F0E5F80346002B0DD023
:101FB800FB681B6C042B07D1FB681B681A68FB685D
:101FC8001B6842F400721A6001231AE0FB681B8D3B
:101FD800002B94D1FB681B681A68FB681B6842F4E5
:101FE80000721A60FB68202283F83D20FB680022FB
:101FF80083F83E20FB68002283F83C20002300E0A1
:10200800022318461837BD4680BD00BF02001000E5
:102018000000FFFF80B58CB002AFF860084611469B
:102028001A4603467B810B463B811346FB80FEF72D
:10203800D3FE7862FB6893F83D30DBB2202B40F08A
:1020480008827B6A0093192301227B49F86801F012
:102058007AFF0346002B01D00223FBE1FB6893F8CB
:102068003C30012B01D10223F4E1FB68012283F803
:102078003C20FB681B681B6803F00103012B07D099
:10208800FB681B681A68FB681B6842F001021A604B
:10209800FB681B681A68FB681B6822F400621A60F8
:1020A800FB68222283F83D20FB68402283F83E200B
:1020B800FB6800221A64FB683A6B5A62FB68BA8EA6
:1020C8005A85FB685B8D9AB2FB681A85FB685B4A88
:1020D800DA62F8883A8979897B6A0193BB6B009345
:1020E8000346F86801F0CAFD0346002B01D001231E
:1020F800B0E1FB681B8D002B13D100233B62FB680A
:102108001B685B693B62FB681B689B693B623B6AB7
:10211800FB681B681A68FB681B6842F400721A6047
:1021280084E1FB681B8D012B1BD1FB681B681A68B7
:10213800FB681B6822F480621A600023FB61FB685D
:102148001B685B69FB61FB681B689B69FB61FB693A
:10215800FB681B681A68FB681B6842F400721A6007
:1021680064E1FB681B8D022B1BD1FB681B681A6896
:10217800FB681B6822F480621A60FB681B681A6897
:10218800FB681B6842F400621A600023BB61FB68AD
:102198001B685B69BB61FB681B689B69BB61BB69AA
:1021A80044E100237B61FB681B685B697B61FB681A
:1021B8001B689B697B617B6938E1FB681B8D032B7E
:1021C80000F2F180FB681B8D012B23D17A6AB96B71
:1021D800F86802F010F80346002B01D0012339E11A
:1021E800FB681B681A69FB685B6AD2B21A70FB68E5
:1021F8005B6A5A1CFB685A62FB681B8D013B9AB2EA
:10220800FB681A85FB685B8D9BB2013B9AB2FB6841
:102218005A850BE1FB681B8D022B4ED17B6A00931C
:10222800BB6B00220649F86801F08DFE0346002BBF
:1022380008D001230EE100BF020010000000FFFFDC
:1022480004000100FB681B681A68FB681B6842F4FD
:1022580000721A60FB681B681A69FB685B6AD2B275
:102268001A70FB685B6A5A1CFB685A62FB681B8D14
:10227800013B9AB2FB681A85FB685B8D9BB2013BF8
:102288009AB2FB685A85FB681B681A69FB685B6A27
:10229800D2B21A70FB685B6A5A1CFB685A62FB6808
:1022A8001B8D013B9AB2FB681A85FB685B8D9BB25C
:1022B800013B9AB2FB685A85B8E07B6A0093BB6B16
:1022C80000226649F86801F03EFE0346002B01D063
:1022D8000123BFE0FB681B681A68FB681B6822F4CF
:1022E80080621A60FB681B681A69FB685B6AD2B275
:1022F8001A70FB685B6A5A1CFB685A62FB681B8D84
:10230800013B9AB2FB681A85FB685B8D9BB2013B67
:102318009AB2FB685A857B6A0093BB6B00224F49CF
:10232800F86801F010FE0346002B01D0012391E06C
:10233800FB681B681A68FB681B6842F400721A6025
:10234800FB681B681A69FB685B6AD2B21A70FB6883
:102358005B6A5A1CFB685A62FB681B8D013B9AB288
:10236800FB681A85FB685B8D9BB2013B9AB2FB68E0
:102378005A85FB681B681A69FB685B6AD2B21A70D7
:10238800FB685B6A5A1CFB685A62FB681B8D013B41
:102398009AB2FB681A85FB685B8D9BB2013B9AB2C7
:1023A800FB685A8542E07A6AB96BF86801F023FF46
:1023B8000346002B01D001234CE0FB681B681A6917
:1023C800FB685B6AD2B21A70FB685B6A5A1CFB68CE
:1023D8005A62FB681B8D013B9AB2FB681A85FB6841
:1023E8005B8D9BB2013B9AB2FB685A85FB681B6800
:1023F8005B6903F00403042B18D1FB681B681A6996
:10240800FB685B6AD2B21A70FB685B6A5A1CFB688D
:102418005A62FB681B8D013B9AB2FB681A85FB6800
:102428005B8D9BB2013B9AB2FB685A85FB681B8D9A
:10243800002B7FF4C2AEFB68202283F83D20FB68A6
:10244800002283F83E20FB68002283F83C2000230A
:1024580000E0022318462837BD4680BD040001006D
:1024680080B58AB002AFF8607A603B600B467B812A
:10247800FEF7B2FCF8610123BB61FB6893F83D30BD
:10248800DBB2202B40F01081FB6900931923012255
:102498008849F86801F057FD0346002B01D0022354
:1024A80003E1FB6893F83C30012B01D10223FCE0E7
:1024B800FB68012283F83C20FB681B681B6803F05B
:1024C8000103012B07D0FB681B681A68FB681B68AF
:1024D80042F001021A60FB681B681A68FB681B68F7
:1024E80022F400621A60FB68242283F83D20FB680E
:1024F80000221A64FB68704ADA62FB681B681A6873
:10250800FB681B6842F480721A60FB6900933B68A1
:1025180000224FF00111F86801F015FD0346002B69
:102528000CD0FB681B681B6803F48073002B03D076
:10253800FB684FF400721A640323B6E07B89DBB2B0
:102548001A46FB681B6802F0FE021A61FEF744FC9B
:10255800F861FB681B685B6903F00203022B0CBF80
:1025680001230023DBB2FB75FB681B685B6903F47E
:102578008063B3F5806F0CBF01230023DBB2BB750A
:1025880025E0FEF729FC0246FB69D31A3A689A420D
:1025980002D33B68002B03D1FB68A02283F83D20BF
:1025A800FB681B685B6903F00203022B0CBF012365
:1025B8000023DBB2FB75FB681B685B6903F480636F
:1025C800B3F5806F0CBF01230023DBB2BB75FB683A
:1025D80093F83D30DBB2A02B05D0FB7D002B02D158
:1025E800BB7D002BCDD0FB68202283F83D20FB6803
:1025F8001B685B6903F00203022B29D1FB681B6887
:102608001A68FB681B6842F400721A6000233B6179
:10261800FB681B685B693B61FB681B689B693B61E6
:102628003B69FB690093192301222249F86801F0EC
:102638008AFC0346002B01D0012336E0FB682022E8
:1026480083F83D20FB68002283F83C2000232CE01F
:10265800FB681B681A68FB681B6842F400721A6002
:10266800FB681B686FF480625A61FB690093192349
:1026780001221049F86801F066FC0346002B01D0DE
:10268800012312E0BB690133BB61BA697B689A42D6
:10269800FFF433AFFB68202283F83D20FB6800225B
:1026A80083F83C20012300E0022318462037BD466A
:1026B80080BD00BF020010000000FFFF80B588B099
:1026C80000AF78600023BB617B681B685B687B6137
:1026D8007B68DB6A3B617B6893F83E30FB737B6801
:1026E80093F83D30BB73FB7B102B03D0FB7B402B57
:1026F80040F0B6807B681B689B69BB617B681B6880
:102708005B69FB61FB6903F00103002B0DD13B6999
:10271800B3F52A0F03D03B69B3F12A4F01D1012346
:1027280000E00023012B00F02781FB6903F001037F
:10273800002B0CD07B695B0A03F00103002B06D049
:10274800786801F0DDFD786800F075FC87E0FB69CA
:10275800DB0803F00103002B09D07B695B0A03F057
:102768000103002B03D0786800F0EBFC77E0FB69ED
:102778005B0803F00103002B09D07B695B0A03F0B7
:102788000103002B03D0786800F005FD67E0BB6902
:102798009B0803F00103002B30D07B681B685B6843
:1027A80003F40063B3F5006F00F0E880FB69DB0910
:1027B80003F00103002B0FD07B699B0A03F0010390
:1027C800002B09D0FB699B0803F00103002B03D100
:1027D800786800F041F942E0FB699B0803F00103C7
:1027E800002B00F0CB807B695B0A03F00103002B10
:1027F80000F0C480786800F0CBF9BFE07B681B6804
:102808005B6803F40063B3F5006F00F0B780FB6901
:102818009B0903F00103002B0FD07B699B0A03F08F
:102828000103002B09D0FB699B0803F00103002B6F
:1028380003D1786800F093FA11E0FB699B0803F074
:102848000103002B00F09A807B695B0A03F0010307
:10285800002B00F09380786800F003FB8EE08DE099
:102868007B681B6C002B04D07B681B685B69FB6171
:1028780007E07B681B689B69BB617B681B685B69B9
:10288800FB61FB695B0803F00103002B12D07B6935
:102898005B0A03F00103002B0CD07B681B6C002B38
:1028A80003D07B681B689B69BB61B969786800F0D5
:1028B800C1FE66E0FB691B0903F00103002B09D088
:1028C8007B695B0A03F00103002B03D0786800F0F2
:1028D800F5FE56E0BB7B212B02D0BB7B292B25D1F3
:1028E800FB69DB0903F00103002B0FD07B699B0A0E
:1028F80003F00103002B09D0FB699B0803F00103D7
:10290800002B03D1786800F0D7FD39E0FB699B08FC
:1029180003F00103002B33D07B695B0A03F001034A
:10292800002B2DD0786800F004FE29E0FB699B0994
:1029380003F00103002B0FD07B699B0A03F001030E
:10294800002B09D0FB699B0803F00103002B03D17E
:10295800786800F00FFE14E0FB699B0803F00103A0
:10296800002B0ED07B695B0A03F00103002B08D013
:10297800786800F03DFE04E000BF02E000BF00E020
:1029880000BF2037BD4680BD80B483B000AF7860FB
:1029980000BF0C37BD465DF8047B704780B483B038
:1029A80000AF786000BF0C37BD465DF8047B704708
:1029B80080B483B000AF786000BF0C37BD465DF8C7
:1029C800047B704780B483B000AF786000BF0C37D9
:1029D800BD465DF8047B704780B483B000AF786073
:1029E8000B46FB7013463B8000BF0C37BD465DF8B5
:1029F800047B704780B483B000AF786000BF0C37A9
:102A0800BD465DF8047B704780B483B000AF786042
:102A180000BF0C37BD465DF8047B704780B483B0B7
:102A280000AF786000BF0C37BD465DF8047B704787
:102A380080B483B000AF786000BF0C37BD465DF846
:102A4800047B704780B483B000AF786000BF0C3758
:102A5800BD465DF8047B704780B584B000AF7860F0
:102A68007B6893F83D30FB737B6893F83E30BB730B
:102A78007B68DB6ABB607B681B8D002B50D1FB7BBE
:102A8800212B4DD1BB68082B1DD0BB68202B1AD039
:102A9800BB6813F5803F16D07B681B685A687B6853
:102AA8001B6822F4E0625A607B6811221A637B6813
:102AB800002283F83E207B68202283F83D20786836
:102AC800FFF762FF60E07B681B685A687B681B68D9
:102AD80022F4E0625A607B681B681A687B681B688E
:102AE80042F400721A607B6800221A637B68202215
:102AF80083F83D207B6893F83E30DBB2402B07D14A
:102B08007B68002283F83E207868FFF77DFF3BE072
:102B18007B68002283F83E207868FFF735FF33E0B2
:102B2800FB7B212B05D0BB7B402B2DD1FB7B222BA4
:102B38002AD17B685B8D9BB2002B08D17B681B6810
:102B48005A687B681B6822F480625A601CE07B68C4
:102B580093F83E30DBB2402B03D1786800F098F848
:102B680012E07B685B6A1A787B681B681A617B686D
:102B78005B6A5A1C7B685A627B685B8D9BB2013B1F
:102B88009AB27B685A85FFE700BF1037BD4680BD03
:102B980080B584B000AF78607B68DB6AFB607B68D7
:102BA80093F83D30DBB2212B65D17B685B8D9BB2FE
:102BB800002B12D07B685B6A1A787B681B681A61E5
:102BC8007B685B6A5A1C7B685A627B685B8D9BB228
:102BD800013B9AB27B685A8556E0FB68082B1DD0EA
:102BE800FB68202B1AD0FB6813F5803F16D07B6852
:102BF8001B685A687B681B6822F4E0625A607B682D
:102C080011221A637B68002283F83E207B68202209
:102C180083F83D207868FFF7B7FE35E07B681B68CE
:102C28005A687B681B6822F4E0625A607B681B68FC
:102C38001A687B681B6842F400721A607B6800227D
:102C48001A637B68202283F83D207B6893F83E3026
:102C5800DBB2402B07D17B68002283F83E207868DE
:102C6800FFF7D2FE10E07B68002283F83E207868E8
:102C7800FFF78AFE08E07B6893F83E30DBB2402B12
:102C880002D1786800F004F800BF1037BD4680BD57
:102C980080B483B000AF78607B681B6D002B1DD1BA
:102CA8007B68DB6C012B0BD17B689B6CDAB27B6891
:102CB8001B681A617B681B6D9A1C7B681A6548E063
:102CC8007B689B6C9BB21B12DAB27B681B681A612B
:102CD8007B681B6D5A1C7B681A653AE07B681B6D24
:102CE800012B0BD17B689B6CDAB27B681B681A617D
:102CF8007B681B6D5A1C7B681A652AE07B681B6D14
:102D0800022B26D17B6893F83D30DBB2222B08D109
:102D18007B681B681A687B681B6842F480721A60BB
:102D280017E07B6893F83D30DBB2212B11D17B682B
:102D38005B6A1A787B681B681A617B685B6A5A1C35
:102D48007B685A627B685B8D9BB2013B9AB27B6859
:102D58005A8500BF0C37BD465DF8047B704780B5C7
:102D680084B000AF78607B6893F83D30DBB2222BEB
:102D780073D17B685B8D9BB2FB60FB68032B20D90A
:102D88007B681B681A697B685B6AD2B21A707B68B9
:102D98005B6A5A1C7B685A627B685B8D9BB2013BFD
:102DA8009AB27B685A857B685B8D9BB2032B54D1A2
:102DB8007B681B685A687B681B6822F480625A60CB
:102DC8004BE07B68DB6A022B47D0FB68012B02D003
:102DD800FB68002B41D17B681B681A687B681B68FD
:102DE80022F480621A607B681B685A687B681B68DB
:102DF80022F4E0625A607B681B681A697B685B6A28
:102E0800D2B21A707B685B6A5A1C7B685A627B680C
:102E18005B8D9BB2013B9AB27B685A857B68202206
:102E280083F83D207B6893F83E30DBB2402B0AD113
:102E38007B68002283F83E207B6800221A6378684A
:102E4800FFF7ECFD09E07B68002283F83E207B68F1
:102E580012221A637868FFF7A1FD00BF1037BD463C
:102E680080BD80B584B000AF78607B68DB6AFB60AA
:102E78007B685B8D9BB2042B1BD17B681B685A68EF
:102E88007B681B6822F480625A607B681B681A6939
:102E98007B685B6AD2B21A707B685B6A5A1C7B6873
:102EA8005A627B685B8D9BB2013B9AB27B685A85FC
:102EB800BDE07B685B8D9BB2032B29D17B681B68C7
:102EC8005A687B681B6822F480625A60FB68042B8E
:102ED8000AD0FB68022B07D07B681B681A687B68DE
:102EE8001B6822F480621A607B681B681A697B6819
:102EF8005B6AD2B21A707B685B6A5A1C7B685A623A
:102F08007B685B8D9BB2013B9AB27B685A858EE0E9
:102F18007B685B8D9BB2022B76D1FB68012B02D0BC
:102F2800FB68102B08D17B681B681A687B681B68D4
:102F380022F480621A6019E0FB68042B02D0FB6857
:102F4800022B08D17B681B681A687B681B6842F4EF
:102F580080621A600AE0FB68102B07D07B681B6848
:102F68001A687B681B6842F400721A607B681B68E9
:102F78001A697B685B6AD2B21A707B685B6A5A1CF2
:102F88007B685A627B685B8D9BB2013B9AB27B6817
:102F98005A857B681B681A697B685B6AD2B21A70AB
:102FA8007B685B6A5A1C7B685A627B685B8D9BB244
:102FB800013B9AB27B685A857B681B685A687B68B4
:102FC8001B6822F440725A607B68202283F83D20F7
:102FD8007B6893F83E30DBB2402B0AD17B68002235
:102FE80083F83E207B6800221A637868FFF716FD95
:102FF8001DE07B68002283F83E207B6812221A635A
:103008007868FFF7CBFC12E07B681B681A697B685D
:103018005B6AD2B21A707B685B6A5A1C7B685A6218
:103028007B685B8D9BB2013B9AB27B685A8500BF77
:103038001037BD4680BD80B483B000AF78607B6830
:1030480093F83E30DBB2402B17D17B681B6D002B09
:1030580009D17B685B6CDBB21A467B681B6802F09F
:10306800FE021A6167E07B685B6CDBB243F0010328
:10307800DAB27B681B681A615DE07B681B69B3F58F
:10308800804F33D17B6893F83D30DBB2212B09D1D7
:103098007B685B6CDBB21A467B681B6802F0FE0239
:1030A8001A6108E07B685B6CDBB243F00103DAB2BB
:1030B8007B681B681A617B685B6B002B04D07B689C
:1030C8005B6BDB6B002B08D17B689B6B002B32D0D2
:1030D8007B689B6BDB6B002B2DD07B681B685A6869
:1030E8007B681B6842F400625A6024E07B681B6DB1
:1030F800002B0ED17B685B6C9BB2DB11DBB203F05B
:103108000603DBB263F00F03DAB27B681B681A614F
:1031180011E07B681B6D012B0DD17B685B6C9BB24A
:10312800DB11DBB203F00603DBB263F00E03DAB2A5
:103138007B681B681A6100BF0C37BD465DF8047BCD
:10314800704780B483B000AF78607B685B6CDAB29C
:103158007B681B681A617B685B6B002B03D17B68FB
:103168009B6B002B11D07B685B6BDB6B002B04D156
:103178007B689B6BDB6B002B07D07B681B685A68EE
:103188007B681B6842F400625A6000BF0C37BD467A
:103198005DF8047B704780B491B000AF78607B68BD
:1031A80093F83E3087F83F307B68DB6ABB637B6807
:1031B8001B6B7B637B6893F83D30DBB2222B40F0BE
:1031C80069817B681B6D002B0FD197F83F30402B2E
:1031D8000BD100233B637B681B685B693B637B689F
:1031E8001B689B693B633B6B60E17B681B6D002B35
:1031F8001DD17B681B69B3F5404F18D10023FB62D2
:103208007B681B685B69FB627B681B689B69FB6268
:10321800FB6A7B681B681A687B681B6842F48072CB
:103228001A607B681B6D5A1C7B681A653EE17B68D7
:103238005B8D9BB2002B13D10023BB627B681B689C
:103248005B69BB627B681B689B69BB62BB6A7B6806
:103258001B681A687B681B6842F400721A6015E1E3
:103268007B685B8D9BB2012B40F08A80BB6B13F5AA
:10327800803F37D17B681B681A687B681B6822F41B
:1032880080621A607B681B685B6803F40063B3F5AF
:10329800006F13D17B681B681A687B681B6822F46F
:1032A80080621A6000237B627B681B685B697B62B3
:1032B8007B681B689B697B627B6AE7E000233B6253
:1032C8007B681B685B693B627B681B689B693B6228
:1032D8003B6A7B681B681A687B681B6842F400724B
:1032E8001A60D3E0BB6B082B2ED0BB6B202B2BD0E6
:1032F8007B6B122B02D1BB6B012B25D1BB6B042B33
:103308000ED0BB6B022B0BD0BB6B102B08D07B688D
:103318001B681A687B681B6822F480621A6007E0E1
:103328007B681B681A687B681B6842F480621A60B5
:103338000023FB617B681B685B69FB617B681B681A
:103348009B69FB61FB69A1E07B681B681A687B6865
:103358001B6822F480621A600023BB617B681B68CB
:103368005B69BB617B681B689B69BB61BB697B68E8
:103378001B681A687B681B6842F400721A6085E053
:103388007B685B8D9BB2022B4DD1BB6B042B16D097
:10339800BB6B022B13D0BB6B102B10D07B681B6848
:1033A8001A687B681B6822F480621A607B681B6855
:1033B8001A687B681B6842F400621A6007E07B6841
:1033C8001B681A687B681B6842F480621A607B6815
:1033D8001B685B6803F40063B3F5006F17D1BB6B20
:1033E80013F5803F0BD0BB6B012B08D0BB6B082BB0
:1033F80005D0BB6B102B02D0BB6B202B07D17B6891
:103408001B685A687B681B6842F480525A60002324
:103418007B617B681B685B697B617B681B689B6958
:103428007B617B6932E07B681B681A687B681B6874
:1034380042F480621A607B681B685B6803F400636F
:10344800B3F5006F17D1BB6B13F5803F0BD0BB6B87
:10345800012B08D0BB6B082B05D0BB6B102B02D0FF
:10346800BB6B202B07D17B681B685A687B681B687D
:1034780042F480525A6000233B617B681B685B6999
:103488003B617B681B689B693B613B697B680022E9
:103498001A650BE00023FB607B681B685B69FB60B7
:1034A8007B681B689B69FB60FB68FFE700BF4437CC
:1034B800BD465DF8047B704780B584B000AF786086
:1034C8007B6893F83D30FB737B685B8D9BB2002B68
:1034D8002BD07B685B6A1A787B681B681A617B68EB
:1034E8005B6A5A1C7B685A627B685B8D9BB2013BA6
:1034F8009AB27B685A857B685B8D9BB2002B14D18E
:10350800FB7B292B11D17B681B685A687B681B6879
:1035180022F480625A607B6821221A637B68282221
:1035280083F83D207868FFF743FA00BF1037BD469F
:1035380080BD80B483B000AF78607B685B8D9BB240
:10354800002B11D07B685B6A1A787B681B681A614C
:103558007B685B6A5A1C7B685A627B685B8D9BB28E
:10356800013B9AB27B685A8500BF0C37BD465DF8AF
:10357800047B704780B584B000AF78607B6893F8AF
:103588003D30FB737B685B8D9BB2002B2CD07B6836
:103598001B681A697B685B6AD2B21A707B685B6ABF
:1035A8005A1C7B685A627B685B8D9BB2013B9AB25E
:1035B8007B685A857B685B8D9BB2002B14D1FB7BA3
:1035C8002A2B11D17B681B685A687B681B6822F418
:1035D80080625A607B6822221A637B68282283F8FB
:1035E8003D207868FFF7EEF900BF1037BD4680BD73
:1035F80080B483B000AF78607B685B8D9BB2002B92
:1036080012D07B681B681A697B685B6AD2B21A7031
:103618007B685B6A5A1C7B685A627B685B8D9BB2CD
:10362800013B9AB27B685A8500BF0C37BD465DF8EE
:10363800047B704780B584B000AF786039600023A0
:10364800FB737B6893F83D30DBB203F02803282B2B
:1036580027D17B681B685A687B681B6822F48062E4
:103668005A603B689B0803F00103002B01D101233A
:10367800FB733B68DB0903F00103002B03D17B6874
:10368800DB68BB8102E07B689B69BB817B680022A9
:1036980083F83C20BA89FB7B19467868FFF79CF9C8
:1036A80008E07B681B686FF002025A617B680022A1
:1036B80083F83C2000BF1037BD4680BD80B584B07C
:1036C80000AF78607B6893F83D30FB737B681B68BC
:1036D8005A687B681B6822F4E0625A600023BB606A
:1036E8007B681B685B69BB607B681B681A687B68C2
:1036F8001B6842F001021A60BB687B681B681A6885
:103708007B681B6822F480621A607B681B685B68B0
:1037180003F40063B3F5006F72D1FB7B222B02D058
:10372800FB7B2A2B35D17B689B6B1B685B689AB245
:103738007B685A857B685B8D9BB2002B05D07B68C4
:103748001B6C43F004027B681A647B681B685A6828
:103758007B681B6822F400625A607B689B6B184682
:10376800FDF79CFF0346012B49D07B689B6B694A98
:103778001A657B689B6B1846FDF7E4FD0346002B32
:103788003DD07B689B6B1B6D7A68926B104698479F
:1037980035E07B685B6B1B685B689AB27B685A850F
:1037A8007B685B8D9BB2002B05D07B681B6C43F05C
:1037B80004027B681A647B681B685A687B681B680C
:1037C80022F400625A607B685B6B1846FDF766FF5F
:1037D8000346012B14D07B685B6B4E4A1A657B68E5
:1037E8005B6B1846FDF7AEFD0346002B08D07B68DF
:1037F8005B6B1B6D7A68526B1046984700E000BF00
:103808007B685B8D9BB2002B3ED07B681B685B6935
:1038180003F00403042B12D17B681B681A697B68C8
:103828005B6AD2B21A707B685B6A5A1C7B685A6200
:103838007B685B8D9BB2013B9AB27B685A857B683B
:103848001B685B6903F04003402B12D17B681B683F
:103858001A697B685B6AD2B21A707B685B6A5A1C09
:103868007B685A627B685B8D9BB2013B9AB27B682E
:103878005A857B685B8D9BB2002B05D07B681B6CDF
:1038880043F004027B681A647B681B6C002B03D02E
:10389800786800F043F839E0FB7B2A2B09D17B6874
:1038A80000221A637B68282283F83D207868FFF796
:1038B80089F87B6893F83D30DBB2282B11D17B68FF
:1038C800154ADA627B6800221A637B68202283F833
:1038D8003D207B68002283F83E207868FFF78AF84D
:1038E80014E07B681B6B222B02D0FB7B222B0DD1B3
:1038F8007B6800221A637B68202283F83D207B685E
:10390800002283F83E207868FFF75CF800BF103784
:10391800BD4680BD513E00080000FFFF80B584B061
:1039280000AF78607B6893F83D30FB737B6893F851
:103938003E30DBB2102B0AD1FB7B222B07D17B68F0
:103948001B681A687B681B6822F400621A60FB7B9C
:1039580003F02803282B07D17B6800221A637B68B1
:10396800282283F83D2015E07B681B685B6803F418
:103978000063B3F5006F06D0FB7B602B03D07B6838
:10398800202283F83D207B6800221A637B6800228E
:1039980083F83E207B681B685B6803F40063B3F51B
:1039A800006F62D17B681B685A687B681B6822F4C9
:1039B80000625A607B685B6B93F83530DBB2012B91
:1039C80020D07B685B6B6A4A1A657B685B6B18461C
:1039D800FDF7B8FC0346002B00F089807B681B6864
:1039E8001A687B681B6822F001021A607B68202233
:1039F80083F83D207B685B6B1B6D7A68526B1046C1
:103A0800984774E07B689B6B594A1A657B689B6B87
:103A18001846FDF797FC0346002B68D07B681B68A7
:103A28005B6903F04003402B0BD17B681B681A6964
:103A38007B685B6AD2B21A707B685B6A5A1C7B68C7
:103A48005A627B681B681A687B681B6822F001024F
:103A58001A607B68202283F83D207B689B6B1B6D76
:103A68007A68926B1046984741E07B6893F83D303E
:103A7800DBB2602B25D17B68202283F83D207B6850
:103A880000221A647B681B685B6903F04003402BC3
:103A98000BD17B681B681A697B685B6AD2B21A70A3
:103AA8007B685B6A5A1C7B685A627B681B681A6869
:103AB8007B681B6822F001021A607868FEF7C2FF73
:103AC80015E07B681B685B6903F04003402B0BD152
:103AD8007B681B681A697B685B6AD2B21A707B685C
:103AE8005B6A5A1C7B685A627868FEF7A1FF7B689C
:103AF8001B6CBB60BB6803F00103002B0ED1BB68D5
:103B080003F00203002B09D1BB6803F00403002B68
:103B180004D1BB6803F00803002B07D07B681B683F
:103B28005A687B681B6822F4E0625A607B6893F8E5
:103B38003D30FB737B681B6C03F00403042B13D12B
:103B4800FB7B282B10D17B680A4ADA627B6800224B
:103B58001A637B68202283F83D207B68002283F863
:103B68003E207868FEF746FF00BF1037BD4680BD8F
:103B7800513E00080000FFFF80B588B002AFF86032
:103B88007A603B600B467B81FB68DB6A7B617B6903
:103B9800082B06D07B69012B03D07B6913F5803F86
:103BA80008D1FB681B681A68FB681B6842F48072BE
:103BB8001A600BE0FB681B6B122B07D1FB681B68B4
:103BC8001A68FB681B6842F480721A603B680093AD
:103BD8007B6800224FF00111F86800F0B4F9034641
:103BE800002B0CD0FB681B681B6803F48073002B48
:103BF80003D0FB684FF400721A64032335E0FB68B6
:103C08001B69B3F5804F08D17B89DBB21A46FB6884
:103C18001B6802F0FE021A611BE07B89DB11DBB234
:103C280003F00603DBB263F00F03DAB2FB681B682C
:103C38001A613B687A680F49F86800F0DBF90346B7
:103C4800002B01D0012310E07B89DAB2FB681B68E6
:103C58001A613B687A680849F86800F0CBF90346AE
:103C6800002B01D0012300E0002318461837BD4679
:103C780080BD00BF080001000200010080B588B0C7
:103C880002AFF860084611461A4603467B810B4688
:103C98003B811346FB80FB681B681A68FB681B683E
:103CA80042F480621A60FB681B681A68FB681B682C
:103CB80042F480721A607B6A00933B6A00224FF0DC
:103CC8000111F86800F03FF90346002B0CD0FB689F
:103CD8001B681B6803F48073002B03D0FB684FF448
:103CE80000721A640323A9E07B89DBB21A46FB68D9
:103CF8001B6802F0FE021A617B6A3A6A5149F86849
:103D080000F078F90346002B01D0012396E0002348
:103D18007B61FB681B685B697B61FB681B689B694F
:103D28007B617B697A6A396AF86800F0E2F90346D0
:103D3800002B0DD0FB681B6C042B07D1FB681B689C
:103D48001A68FB681B6842F400721A60012375E068
:103D5800FB88012B05D13B89DAB2FB681B681A6125
:103D680021E03B891B0A9BB2DAB2FB681B681A6127
:103D78007A6A396AF86800F0BCF90346002B0DD05E
:103D8800FB681B6C042B07D1FB681B681A68FB686F
:103D98001B6842F400721A6001234FE03B89DAB2D3
:103DA800FB681B681A617A6A396AF86800F0A1F939
:103DB8000346002B0DD0FB681B6C042B07D1FB6856
:103DC8001B681A68FB681B6842F400721A600123BA
:103DD80034E0FB681B681A68FB681B6842F4807251
:103DE8001A607B6A00933B6A00224FF00111F86861
:103DF80000F0A9F80346002B0CD0FB681B681B6871
:103E080003F48073002B03D0FB684FF400721A642C
:103E1800032313E07B89DBB243F00103DAB2FB68CA
:103E28001B681A617B6A3A6A0649F86800F0E2F88A
:103E38000346002B01D0012300E000231846183761
:103E4800BD4680BD0200010080B584B000AF786037
:103E58007B689B6BFB60FB6893F83D30FB72FB68EB
:103E68005B6B002B03D0FB685B6B0022DA63FB689B
:103E78009B6B002B03D0FB689B6B0022DA63FB680B
:103E88001B681A68FB681B6822F480621A60FB686A
:103E980000225A85FB685B6B002B03D0FB685B6BC9
:103EA80000221A65FB689B6B002B03D0FB689B6B99
:103EB80000221A65FB681B681A68FB681B6822F0F9
:103EC80001021A60FB6893F83D30DBB2602B0ED11B
:103ED800FB68202283F83D20FB68002283F83E20FF
:103EE800FB6800221A64F868FEF7ACFD27E0FB7A4D
:103EF80003F02803282B17D1FB681B681A68FB6896
:103F08001B6842F001021A60FB681B681A68FB68AC
:103F18001B6842F480621A60FB6800221A63FB681F
:103F2800282283F83D2007E0FB68202283F83D2003
:103F3800FB68002283F83E20F868FEF779FD00BF91
:103F48001037BD4680BD80B584B000AFF860B96059
:103F58003B601346FB7125E03B68B3F1FF3F21D07E
:103F6800FCF73AFF0246BB69D31A3A689A4202D371
:103F78003B68002B16D1FB6800221A63FB682022DD
:103F880083F83D20FB68002283F83E20FB681B6C09
:103F980043F02002FB681A64FB68002283F83C2087
:103FA800012323E0BB681B0CDBB2012B0DD1FB689E
:103FB8001B685B69DA43BB6813409BB2002B0CBFDC
:103FC80001230023DBB21A460CE0FB681B689B69DF
:103FD800DA43BB6813409BB2002B0CBF01230023BC
:103FE800DBB21A46FB799A42B6D00023184610373E
:103FF800BD4680BD80B584B000AFF860B9607A6016
:104008003B6051E0FB681B685B6903F48063B3F5B0
:10401800806F23D1FB681B681A68FB681B6842F431
:1040280000721A60FB681B686FF480625A61FB6853
:1040380000221A63FB68202283F83D20FB680022D7
:1040480083F83E20FB681B6C43F00402FB681A648B
:10405800FB68002283F83C20012346E07B68B3F12B
:10406800FF3F21D0FCF7B8FE02463B68D31A7A68B6
:104078009A4202D37B68002B16D1FB6800221A6390
:10408800FB68202283F83D20FB68002283F83E204D
:10409800FB681B6C43F02002FB681A64FB68002273
:1040A80083F83C20012320E0BB681B0CDBB2012B0A
:1040B8000CD1FB681B685B69DA43BB6813409BB291
:1040C800002B14BF01230023DBB20BE0FB681B6845
:1040D8009B69DA43BB6813409BB2002B14BF0123D2
:1040E8000023DBB2002B8DD1002318461037BD46C4
:1040F80080BD80B584B000AFF860B9607A602DE00B
:10410800F86800F0CEF80346002B01D001232DE01B
:10411800BB68B3F1FF3F21D0FCF75EFE02467B6827
:10412800D31ABA689A4202D3BB68002B16D1FB682F
:1041380000221A63FB68202283F83D20FB680022D6
:1041480083F83E20FB681B6C43F02002FB681A646E
:10415800FB68002283F83C20012307E0FB681B680A
:104168005B6903F08003802BCAD1002318461037FF
:10417800BD4680BD80B584B000AFF860B9607A6094
:104188002DE0F86800F08DF80346002B01D00123DC
:104198002DE0BB68B3F1FF3F21D0FCF71DFE0246BE
:1041A8007B68D31ABA689A4202D3BB68002B16D12F
:1041B800FB6800221A63FB68202283F83D20FB6815
:1041C800002283F83E20FB681B6C43F02002FB684A
:1041D8001A64FB68002283F83C20012307E0FB688F
:1041E8001B685B6903F00403042BCAD1002318463B
:1041F8001037BD4680BD80B584B000AFF860B960A7
:104208007A6042E0FB681B685B6903F01003102BBF
:1042180019D1FB681B686FF010025A61FB68002215
:104228001A63FB68202283F83D20FB68002283F88C
:104238003E20FB681A6CFB681A64FB68002283F84E
:104248003C20012329E0FCF7C7FD02467B68D31A0E
:10425800BA689A4202D3BB68002B16D1FB680022C9
:104268001A63FB68202283F83D20FB68002283F84C
:104278003E20FB681B6C43F02002FB681A64FB6855
:10428800002283F83C20012307E0FB681B685B6978
:1042980003F04003402BB5D1002318461037BD4624
:1042A80080BD80B483B000AF78607B681B685B69B1
:1042B80003F48063B3F5806F1BD17B681B686FF4D0
:1042C80080625A617B6800221A637B68202283F827
:1042D8003D207B68002283F83E207B681B6C43F0FE
:1042E80004027B681A647B68002283F83C2001235F
:1042F80000E0002318460C37BD465DF8047B704784
:1043080080B483B000AF78607B68DB6AB3F52A0FAE
:1043180003D17B680122DA6207E07B68DB6AB3F1CC
:104328002A4F02D17B680822DA6200BF0C37BD46EB
:104338005DF8047B7047000080B588B000AF7860F6
:104348007B68002B01D1012328E17B6893F8413079
:10435800DBB2002B09D17B68002283F840207B6800
:10436800904A5A63786809F039FB7B68022283F81F
:1043780041207B681B68DB697A68126823F47B63D9
:1043880023F00F03D3617B681B6802221A627B68E3
:104398005B69022B60D07B68DB68002B02D110239D
:1043A8007B6101E020237B617B689B68202B02D81E
:1043B8007B695B007B61012002F03AFEF8607B6854
:1043C8001B69B3F5007F25D17B68DB68002B10D013
:1043D8007B699B00FA68B2FBF3F213469B00134417
:1043E8005B001A467B685B69B2FBF3F305333B61FC
:1043F8001FE07B69DB00FA68B2FBF3F213469B000F
:1044080013445B001A467B685B69B2FBF3F3053320
:104418003B610EE0FA687B69B2FBF3F213469B003E
:1044280013445B001A467B685B69B2FBF3F3053300
:104438003B613B695C4AA2FB0323DB083B613B69A8
:1044480003F00103BB613A69BB69D31A5B08FB61DE
:10445800BB691B02BB6103E00223FB610023BB6154
:10446800FB69012B02D9FB69FF2B07D97B685B6CC1
:1044780043F010027B685A6401238FE07B681A6955
:10448800BB6942EA03017B681B68FA690A431A623E
:104498007B681B68DB6923F47B6323F00F037A686E
:1044A80051687A68926811437A68D26811437A68C9
:1044B80092690A431A437B681B6842F40062DA6116
:1044C8007B681B6A012B61D17B68384A5A637B6819
:1044D8001B68374A934201D1364B01E04FF0402325
:1044E800DB697A68126832498A4201D1314A01E0AF
:1044F8004FF0402223F47B6323F00F03D3617B68E2
:104508001B682B4A934201D12A4B01E04FF040230C
:1045180002221A627B681B68254A934201D1254B07
:1045280001E04FF04023DB697B817B685B68B3F572
:10453800007F03D07B685B68002B03D14FF4807346
:104548003B6101E000233B613B699AB27B689B6851
:1045580099B27B68DB6898B27B689B699BB203431E
:104568009BB20B439BB213439AB27B8913439BB212
:1045780043F400637B817B681B680D4A934201D139
:104588000C4B01E04FF040237A89DA617B68002206
:104598005A647B68012283F841200023184620379B
:1045A800BD4680BD694C0008CDCCCCCCF14D00088F
:1045B800003800400034004080B586B000AFF86095
:1045C800B9601346FB80BB68002B02D0FB88002B28
:1045D80001D101238EE0FB6893F84030DBB2012B58
:1045E80001D1022386E0FB68012283F84020FB68A2
:1045F80093F84130DBB2012B05D0FB68002283F829
:104608004020022376E0FB68032283F84120FB6800
:1046180000225A64FB68BA685A62FB681B68DB6947
:1046280003F007037B617B69032B02D07B69052BB1
:104638000AD1FB885B009AB2FB681A85FB885B008D
:104648009AB2FB685A8505E0FB68FA881A85FB6808
:10465800FA885A85FB689B6B284A1A64FB689B6B2F
:10466800274ADA63FB689B6B264ADA64FB68986B17
:10467800FB685B6A1946FB681B680C331A46FB68C3
:104688001B8D9BB2FCF796FD0346002B0FD0FB68F1
:104698005B6C43F00802FB685A64FB68012283F8EC
:1046A8004120FB68002283F84020012322E0FB68B8
:1046B8001B68DB6903F48063002B07D1FB681B6868
:1046C800DA69FB681B6842F48062DA61FB681B6880
:1046D8005B6803F00203002B07D1FB681B685A686C
:1046E800FB681B6842F002025A60FB68002283F8EC
:1046F8004020002318461837BD4680BD474B0008A8
:10470800054B0008634B000880B588B000AF78609F
:104718000023FB777B685B68B3F5007F04D07B6878
:104728005B68002B40F0D1807B689B6B002B0FD01F
:104738007B689B6B1846FCF795FD0346002B07D05A
:104748007B685B6C43F008027B685A640123FB7743
:10475800642301220221786800F00CFB0346002B39
:104768000BD07B685B6C43F001027B685A647B6802
:10477800012283F841200123FB7764230022802152
:10478800786800F0F7FA0346002B0BD07B685B6C67
:1047980043F001027B685A647B68012283F8412058
:1047A8000123FB777B681B68DA697B681B6822F446
:1047B8008062DA6100237B617B681B689B687B6190
:1047C8007B697B681B685A687B681B6822F0020259
:1047D8005A607B6893F84130DBB2052B40F0658165
:1047E8007B68DB6B002B0FD07B68DB6B1846FCF714
:1047F80039FD0346002B07D07B685B6C43F0080249
:104808007B685A640123FB777B681B688A4A93425A
:1048180001D18A4B01E04FF04023DA697B681B68BD
:1048280085498B4201D1854B01E04FF0402322F4AA
:104838008062DA6100233B617B681B687E4A934291
:1048480001D17E4B01E04FF04023DB683B617B6880
:104858001B68794A934201D1784B01E04FF040231D
:104868009B683B613B697B681B68734A934201D133
:10487800724B01E04FF040235A687B681B686E4911
:104888008B4201D16D4B01E04FF0402322F0010231
:104898005A607B685B68002B0CD17B685B6C43F0CB
:1048A80040027B685A647B68012283F84120012317
:1048B800FB77FAE07B681B685F4A934201D15F4B44
:1048C80001E04FF04023DB68EFE07B685B68B3F5FD
:1048D800407F05D07B685B68B3F5807F40F0E5805A
:1048E8007B68DB6B002B0FD07B68DB6B1846FCF713
:1048F800B9FC0346002B07D07B685B6C43F00802C9
:104908007B685A640123FB777B6893F84130DBB2FC
:10491800052B40F09A807B689B6B002B0FD07B683F
:104928009B6B1846FCF79EFC0346002B07D07B6860
:104938005B6C43F008027B685A640123FB77FCF741
:104948004BFAB86112E0FCF747FA0246BB69D31A82
:10495800642B0BD97B685B6C43F001027B685A645B
:104968007B68012283F841200123FB777B681B6861
:10497800314A934201D1314B01E04FF040239B680B
:1049880003F00203022BDED112E0FCF725FA0246FF
:10499800BB69D31A642B0BD97B685B6C43F00102AB
:1049A8007B685A647B68012283F841200123FB77E6
:1049B8007B681B68204A934201D1204B01E04FF0ED
:1049C80040239B6803F08003802BDED07B681B6844
:1049D800194A934201D1194B01E04FF04023DA699B
:1049E8007B681B6814498B4201D1144B01E04FF0DE
:1049F800402322F48062DA610023FB607B681B6835
:104A08000D4A934201D10D4B01E04FF040239B68C2
:104A1800FB60FB687B681B68074A934201D1074B20
:104A280001E04FF040235A687B681B6802498B42BB
:104A380006D1024B06E000BF0038004000340040B9
:104A48004FF0402322F002025A607B681B68DA6943
:104A58007B681B6822F48062DA610023BB607B6894
:104A68001B68DB68BB607B681B689B68BB60BB68B6
:104A78007B681B685A687B681B6822F001025A60D1
:104A88007B685B68B3F5807F0CD17B685B6C43F017
:104A980040027B685A647B68012283F84120012325
:104AA800FB7702E07B681B68DB687B68012283F880
:104AB8004120FB7F18462037BD4680BD80B582B0B7
:104AC80000AF78607B685B6B7868984700BF0837F1
:104AD800BD4680BD80B483B000AF786000BF0C379E
:104AE800BD465DF8047B704780B483B000AF786042
:104AF80000BF0C37BD465DF8047B704780B584B0B5
:104B080000AF78607B689B6BFB607B68DB69002B80
:104B18000ED1FB681B685A68FB681B6822F002020A
:104B28005A60FB6800225A85FB68012283F84120FD
:104B3800F86808F0CBFD00BF1037BD4680BD80B5D2
:104B480084B000AF78607B689B6BFB60F86808F006
:104B5800CFFD00BF1037BD4680BD80B584B000AF23
:104B680078607B689B6BFB60FB681B685A68FB6816
:104B78001B6822F003025A60FB6800225A85FB6812
:104B880000225A86FB68012283F84120FB685B6C8F
:104B980043F00802FB685A64F868FFF7A5FF00BFF6
:104BA8001037BD4680BD80B582B000AF78607B68A5
:104BB8005B6A1A887B681B68DA607B685B6A9A1C88
:104BC8007B685A627B685B8D9BB2013B9AB27B68BB
:104BD8005A857B685B8D9BB2002B0ED17B681B6866
:104BE8005A687B681B6822F0A0025A607B68012221
:104BF80083F84120786808F069FD00BF0837BD4692
:104C080080BD80B582B000AF78607B681B68DA68C9
:104C18007B68DB6A92B21A807B68DB6A9A1C7B68C5
:104C2800DA627B685B8E9BB2013B9AB27B685A86DC
:104C38007B685B8E9BB2002B0ED17B681B685A6821
:104C48007B681B6822F060025A607B68012283F847
:104C580041207868FFF73EFF00BF0837BD4680BD9A
:104C680080B586B000AF78607B681B689B687B6105
:104C78007B6893F84130DBB2042B3AD17B6903F0AF
:104C88000103012B09D17B681B685B6803F04003B3
:104C9800402B02D17868FFF7B4FF7B6903F040032B
:104CA800402B26D17B681B685B6803F02003202B10
:104CB8001FD17B681B685A687B681B6822F06002FA
:104CC8005A6000233B617B681B68DB683B617B683B
:104CD8001B689B683B613B697B68012283F8412024
:104CE8007B685B6C43F002027B685A647868FFF764
:104CF800FBFE7B6893F84130DBB2032B36D17B692E
:104D080003F00203022B09D17B681B685B6803F080
:104D18008003802B02D17868FFF745FF7B6903F099
:104D28000803082B22D17B681B685B6803F020030B
:104D3800202B1BD17B681B685A687B681B6822F094
:104D4800A0025A600023FB607B681B689B68FB60BD
:104D5800FB687B68012283F841207B685B6C43F029
:104D680004027B685A647868FFF7BEFE00BF1837F4
:104D7800BD4680BD80B586B000AFF860B9603B60C5
:104D88001346FB71FCF728F8786118E03B68B3F12B
:104D9800FF3F14D0FCF720F802467B69D31A3A6823
:104DA8009A4202D93B68002B09D1FB68012283F89B
:104DB8004120FB68002283F8402003230FE0FB68B2
:104DC8001B689A68BB681340BA689A420CBF0123F3
:104DD8000023DBB21A46FB799A42D7D10023184642
:104DE8001837BD4680BD000080B588B000AF786038
:104DF8007B681B689B68FB617B681B68A24A9342BF
:104E080001D1A24B01E04FF040239B68BB617B6856
:104E18001B685B687B617B681B689B4A934201D176
:104E28009A4B01E04FF040235B683B617B685B680D
:104E3800B3F5007F04D07B685B68002B40F0998055
:104E4800FB6903F00203022B07D17B6903F080039F
:104E5800002B02D0786800F025F9BB6903F0010344
:104E6800012B07D13B6903F04003002B02D078687F
:104E780000F0C8F9BB6903F04003402B3AD13B6905
:104E880003F02003002B35D07B681B687E4A9342D1
:104E980001D17E4B01E04FF040235A687B681B68C4
:104EA80079498B4201D1794B01E04FF0402322F040
:104EB80060025A607B681B685A687B681B6822F02E
:104EC800A0025A600023FB607B681B68DB68FB60FC
:104ED8007B681B689B68FB60FB687B68012283F822
:104EE80041207B685B6C43F002027B685A647868F7
:104EF800FFF7FAFDFB6903F00803082B40F0BE80BA
:104F08007B6903F02003002B00F0B8807B681B68E6
:104F18005A687B681B6822F0A0025A607B681B688D
:104F2800594A934201D1594B01E04FF040235A6846
:104F38007B681B6854498B4201D1544B01E04FF008
:104F4800402322F060025A600023BB607B681B6824
:104F58009B68BB60BB687B68012283F841207B6843
:104F68005B6C43F004027B685A647868FFF7BCFD09
:104F780084E0BB6903F00203022B07D13B6903F00D
:104F88008003002B02D0786800F0BEF8FB6903F0BC
:104F98000103012B07D17B6903F04003002B02D0EA
:104FA800786800F0FDF8FB6903F04003402B2FD12F
:104FB8007B6903F02003002B2AD07B681B685A68A2
:104FC8007B681B6822F060025A607B681B682E4A67
:104FD800934201D12D4B01E04FF040235A687B6882
:104FE8001B6829498B4201D1284B01E04FF040232F
:104FF80022F0A0025A607B68012283F841207B6876
:105008005B6C43F002027B685A647868FFF76CFDBA
:10501800BB6903F00803082B31D13B6903F0200377
:10502800002B2CD07B681B68174A934201D1174B81
:1050380001E04FF040235A687B681B6812498B4295
:1050480001D1124B01E04FF0402322F0A0025A6038
:105058007B681B685A687B681B6822F060025A608C
:105068007B68012283F841207B685B6C43F0040273
:105078007B685A647868FFF737FD00E000BF00BF1F
:105088002037BD4680BD00BF0038004000340040D6
:1050980080B483B000AF786000BF0C37BD465DF8C0
:1050A800047B704780B582B000AF78607B685B6A2C
:1050B800991C7A6851621A887B681B68DA607B6879
:1050C8005B8D9BB2013B9AB27B685A857B685B8D8E
:1050D8009BB2002B13D17B681B685A687B681B68DE
:1050E80022F0A0025A607B685B8E9BB2002B06D12F
:1050F8007B68012283F841207868FFF7C9FF00BF69
:105108000837BD4680BD000080B582B000AF78602A
:105118007B685B6A991C7A68516219887B681B688E
:105128001D4A934201D11D4B01E04FF040230A462E
:10513800DA607B685B8D9BB2013B9AB27B685A85CB
:105148007B685B8D9BB2002B21D17B681B68124A60
:10515800934201D1114B01E04FF040235A687B681C
:105168001B680D498B4201D10C4B01E04FF04023E5
:1051780022F0A0025A607B685B8E9BB2002B06D19E
:105188007B68012283F841207868FFF781FF00BF20
:105198000837BD4680BD00BF0038004000340040DD
:1051A80080B582B000AF78607B681B68D8687B6880
:1051B800DB6A991C7A68D16282B21A807B685B8E3E
:1051C8009BB2013B9AB27B685A867B685B8E9BB226
:1051D800002B13D17B681B685A687B681B6822F018
:1051E80060025A607B685B8D9BB2002B06D17B689E
:1051F800012283F841207868FFF74AFF00BF08378B
:10520800BD4680BD80B582B000AF78607B681B6802
:10521800204A934201D1204B01E04FF04023D86847
:105228007B68DB6A991C7A68D16282B21A807B68D3
:105238005B8E9BB2013B9AB27B685A867B685B8E19
:105248009BB2002B21D17B681B68124A934201D183
:10525800114B01E04FF040235A687B681B680D49E9
:105268008B4201D10C4B01E04FF0402322F0600249
:105278005A607B685B8D9BB2002B06D17B6801224C
:1052880083F841207868FFF703FF00BF0837BD4661
:1052980080BD00BF0038004000340040F0B58FB03A
:1052A8000AAF78607B68002B01D101230FE17B688E
:1052B8001B68BB607B6893F8BD33DBB2002B06D15B
:1052C8007B68002283F8BC23786809F00DF87B68B6
:1052D800032283F8BD23BB68DB6B03F48073002BC8
:1052E80002D17B6800221A617B681B68184604F0AB
:1052F8004AFC7B681B683B607E686D4606F11004BB
:105308000FCC0FC50FCC0FC594E8030085E8030048
:10531800331D0ECB386804F021FB0346002B05D063
:105328007B68022283F8BD230123D0E07B681B68D9
:105338000021184604F038FC0023FB734AE0FA7B8E
:1053480079681346DB009B1A9B000B443D3301220E
:105358001A70FA7B79681346DB009B1A9B000B4492
:105368003C33FA7B1A70FA7BFB7B98B27968134658
:10537800DB009B1A9B000B44423302461A80FA7BDF
:1053880079681346DB009B1A9B000B443F330022CD
:105398001A70FA7B79681346DB009B1A9B000B4452
:1053A800443300221A60FA7B79681346DB009B1AA3
:1053B8009B000B44483300221A60FA7B7968134635
:1053C800DB009B1A9B000B44503300221A60FB7BC6
:1053D8000133FB73FA7B7B685B689A42AFD3002387
:1053E800FB7344E0FA7B79681346DB009B1A9B0049
:1053F8000B4403F2FD1300221A70FA7B79681346F6
:10540800DB009B1A9B000B4403F5FE73FA7B1A70B2
:10541800FA7B79681346DB009B1A9B000B4403F266
:10542800FF1300221A70FA7B79681346DB009B1A77
:105438009B000B4403F5017300221A60FA7B79681C
:105448001346DB009B1A9B000B4403F502730022F2
:105458001A60FA7B79681346DB009B1A9B000B44A1
:1054680003F5047300221A60FB7B0133FB73FA7B9C
:105478007B685B689A42B5D37B681B683B607E6833
:105488006D4606F110040FCC0FC50FCC0FC594E87C
:10549800030085E80300331D0ECB386804F0AEFB2B
:1054A8000346002B05D07B68022283F8BD23012325
:1054B8000DE07B68002283F838207B68012283F89E
:1054C800BD237B681B68184605F0EDFB00231846D2
:1054D8001437BD46F0BD80B584B000AF78607B68F6
:1054E8001B68FB607B6893F8BC33012B01D1022356
:1054F80020E07B68012283F8BC237B689B6A012B30
:1055080009D17B689B69012B05D0FB689B6B43F431
:105518008032FB689A637B681B68184605F0ABFB12
:105528007B681B68184604F01DFB7B68002283F823
:10553800BC23002318461037BD4680BD90B58DB0FA
:1055480000AF78607B681B683B623B6AFB617B68E5
:105558001B68184605F052FC0346002B40F09D835B
:105568007B681B68184605F0B6FB0346002B00F065
:1055780093837B681B68184605F0ADFB034603F070
:105588000203022B07D17B681B685A697B681B687A
:1055980002F002025A617B681B68184605F09BFB03
:1055A800034603F01003102B61D17B681B689A69CE
:1055B8007B681B6822F010029A613B6A1B6ABB6118
:1055C800BB6903F00F021346DB009B1A9B0003F52F
:1055D800FC737A68134404337B61BB695B0C03F08A
:1055E8000F03022B24D1BA6947F6F0731340002B3E
:1055F80035D07B69D968BB691B099BB2C3F30A0321
:105608009BB21A46386A05F013FA7B69DA68BB69F7
:105618001B09C3F30A031A447B69DA607B699A6938
:10562800BB691B09C3F30A031A447B699A6116E034
:10563800BB695B0C03F00F03062B10D17B6803F5E5
:10564800717308221946386A05F0F2F97B699A697C
:10565800BB691B09C3F30A031A447B699A617B6817
:105668001B689A697B681B6842F010029A617B6824
:105678001B68184605F02FFB034603F40023B3F517
:10568800002F6ED100237B627B681B68184605F0EB
:1056980035FBB86262E0BB6A03F00103002B57D008
:1056A8007B681B687A6AD2B21146184605F05AFB25
:1056B80038613B6903F00103002B0CD07B6A5A0167
:1056C800FB69134403F530631A4601239360796A32
:1056D800786800F0B1FD3B6903F00803002B0CD09B
:1056E8007B6A5A01FB69134403F530631A460823A1
:1056F8009360796A786800F0ABFE3B6903F01003A9
:10570800002B08D07B6A5A01FB69134403F5306308
:105718001A46102393603B6903F02003002B08D03E
:105728007B6A5A01FB69134403F530631A46202348
:1057380093603B6903F40053002B09D07B6A5A013C
:10574800FB69134403F530631A464FF40053936022
:105758007B6A01337B62BB6A5B08BB62BB6A002B56
:1057680099D17B681B68184605F0B5FA034603F41F
:105778008023B3F5802F40F0C0807B681B681846F3
:1057880005F0D6FAB86200237B62B2E0BB6A03F088
:105798000103002B00F0A7807B681B687A6AD2B2ED
:1057A8001146184605F0FCFA38613B6903F001031D
:1057B800002B57D07B6A03F00F03012202FA03F390
:1057C800FB60FB6903F500635A6BFB68DB43F9690F
:1057D80001F5006113404B637B6A5A01FB6913446E
:1057E80003F510631A46012393607B681B69012B3C
:1057F80032D179687A6A1346DB009B1A9B000B4406
:105808004833196878687A6A1346DB009B1A9B004C
:10581800034444331B68194478687A6A1346DB00EA
:105828009B1A9B000344483319607B6A002B13D1F1
:1058380079687A6A1346DB009B1A9B000B44503345
:105848001B68002B08D17B6818687B6803F57173A7
:105858001A46012105F004FB7B6ADBB21946786819
:1058680008F0C3FD3B6903F00803002B08D07B6AEE
:105878005A01FB69134403F510631A460823936021
:105888003B6903F01003002B08D07B6A5A01FB69BF
:10589800134403F510631A46102393603B6903F021
:1058A8004003002B08D07B6A5A01FB69134403F5B7
:1058B80010631A46402393603B6903F00203002BF0
:1058C80008D07B6A5A01FB69134403F510631A4632
:1058D800022393603B6903F08003002B03D0796AAD
:1058E800786800F01BFC7B6A01337B62BB6A5B084B
:1058F800BB62BB6A002B7FF449AF7B681B68184604
:1059080005F0E9F9034603F00043B3F1004F22D153
:10591800FB6903F500635B68FA6902F5006223F02E
:10592800010353607B6893F8F433012B08D17B683B
:10593800002283F8F4230021786800F027FE02E0B3
:10594800786808F0C9FD7B681B685A697B681B6822
:1059580002F000425A617B681B68184605F0BBF9E3
:10596800034603F40063B3F5006F12D1FB6903F536
:1059780000639B6803F00103012B02D1786808F0EB
:1059880085FD7B681B685A697B681B6802F40062A6
:105998005A617B681B68184605F09DF9034603F4B5
:1059A8008053B3F5805F40F0C780FB6903F500635F
:1059B8005B68FA6902F5006223F0010353607B68B3
:1059C8001B681021184604F07DFA0023FB6256E09C
:1059D800FB6A5A01FB69134403F510631A464FF634
:1059E8007F339360FB6A5A01FB69134403F5106324
:1059F8001B68FA6A5101FA690A4402F5106223F435
:105A080000131360FB6A5A01FB69134403F5106322
:105A18001B68FA6A5101FA690A4402F5106243F0F8
:105A280000631360FB6A5A01FB69134403F5306392
:105A38001A464FF67F339360FB6A5A01FB69134499
:105A480003F530631B68FA6A5101FA690A4402F5E2
:105A5800306223F400131360FB6A5A01FB69134494
:105A680003F530631B68FA6A5101FA690A4402F5C2
:105A7800306243F000631360FB6A0133FB627B68AA
:105A88005B68FA6A9A42A3D3FB6903F50063DB6992
:105A9800FA6902F5006243F00113D3617B681B6B5E
:105AA800002B16D0FB6903F50063D3F88430FA693C
:105AB80002F5006243F00B03C2F88430FB6903F57A
:105AC80000635B6CFA6902F5006243F00B035364F0
