:020000040800F2
:1000000000000120E5850008C97E0008CD7E0008BB
:10001000D17E0008D57E0008D97E000800000000CF
:10002000000000000000000000000000DD7E00086D
:10003000E17E000800000000E57E0008E97E00087F
:1000400035860008358600083586000835860008A4
:100050003586000835860008358600083586000894
:100060003586000835860008358600083586000884
:10007000358600083586000835860008ED7E0008C4
:100080003586000835860008358600080000000027
:10009000000000000000000000000000358600089D
:1000A000358600083586000835860008F97E000888
:1000B000358600083586000835860008057F00086B
:1000C0003586000835860008358600083586000824
:1000D000117F000835860008358600080000000002
:1000E00035860008358600083586000800000000C7
:1000F000000000000000000000000000358600083D
:1001000000000000358600083586000835860008A6
:1001100000000000000000000000000000000000DF
:1001200035860008358600083586000835860008C3
:1001300035860008000000000000000000000000FC
:100140000000000000000000000000001D7F00080B
:100150003586000835860008358600083586000893
:100160003586000835860008000000000000000009
:10017000000000000000000000000000000000007F
:1001800000000000358600080000000000000000AC
:0401900035860008A8
:1001980010B5054C237833B9044B13B10448AFF3B9
:1001A80000800123237010BD6803002000000000B8
:1001B800ECA8000808B5034B1BB103490348AFF38B
:1001C800008008BD000000006C030020ECA80008B7
:1001D800034613F8012B002AFBD1181A013870477F
:1001E80081F0004102E000BF83F0004330B54FEAE0
:1001F80041044FEA430594EA050F08BF90EA020F4D
:100208001FBF54EA000C55EA020C7FEA645C7FEADF
:10021800655C00F0E2804FEA5454D4EB5555B8BF02
:100228006D420CDD2C4480EA020281EA030382EA73
:10023800000083EA010180EA020281EA0303362D05
:1002480088BF30BD11F0004F4FEA01314FF4801CD8
:100258004CEA113102D0404261EB410113F0004FEA
:100268004FEA03334CEA133302D0524263EB4303A1
:1002780094EA050F00F0A780A4F10104D5F1200E3F
:100288000DDB02FA0EFC22FA05F2801841F100019A
:1002980003FA0EF2801843FA05F359410EE0A5F16E
:1002A80020050EF1200E012A03FA0EFC28BF4CF09F
:1002B800020C43FA05F3C01851EBE37101F0004555
:1002C80007D54FF0000EDCF1000C7EEB00006EEB62
:1002D8000101B1F5801F1BD3B1F5001F0CD34908EC
:1002E8005FEA30004FEA3C0C04F101044FEA445243
:1002F80012F5800F80F09A80BCF1004F08BF5FEACA
:10030800500C50F1000041EB045141EA050130BDA9
:100318005FEA4C0C404141EB010111F4801FA4F14C
:100328000104E9D191F0000F04BF01460020B1FAA1
:1003380081F308BF2033A3F10B03B3F120020CDAD9
:100348000C3208DD02F1140CC2F10C0201FA0CF0B7
:1003580021FA02F10CE002F11402D8BFC2F1200C1C
:1003680001FA02F120FA0CFCDCBF41EA0C019040D2
:10037800E41AA2BF01EB0451294330BD6FEA04041B
:100388001F3C1CDA0C340EDC04F11404C4F1200206
:1003980020FA04F001FA02F340EA030021FA04F318
:1003A80045EA030130BDC4F10C04C4F1200220FA6F
:1003B80002F001FA04F340EA0300294630BD21FAAD
:1003C80004F0294630BD94F0000F83F4801306BF73
:1003D80081F480110134013D4EE77FEA645C18BF67
:1003E8007FEA655C29D094EA050F08BF90EA020FFE
:1003F80005D054EA000C04BF1946104630BD91EAF6
:10040800030F1EBF0021002030BD5FEA545C05D1F8
:100418004000494128BF41F0004130BD14F5800437
:100428003CBF01F5801130BD01F0004545F0FE41AB
:1004380041F470014FF0000030BD7FEA645C1ABFE0
:10044800194610467FEA655C1CBF0B46024650EA17
:10045800013406BF52EA033591EA030F41F4002143
:1004680030BD00BF90F0000F04BF0021704730B5C9
:100478004FF4806404F132044FF000054FF000019E
:1004880050E700BF90F0000F04BF0021704730B55F
:100498004FF4806404F1320410F0004548BF404234
:1004A8004FF000013EE700BF42004FEAE2014FEA89
:1004B80031014FEA02701FBF12F07F4393F07F4F64
:1004C80081F06051704732F07F4208BF704793F067
:1004D8007F4F04BF41F40021704730B54FF460747A
:1004E80001F0004521F000411CE700BF50EA01027D
:1004F80008BF704730B54FF000050AE050EA010226
:1005080008BF704730B511F0004502D5404261EB95
:1005180041014FF4806404F132045FEA915C3FF4D6
:10052800D8AE4FF003025FEADC0C18BF03325FEA73
:10053800DC0C18BF033202EBDC02C2F1200300FA24
:1005480003FC20FA02F001FA03FE40EA0E0021FA49
:1005580002F11444BDE600BF70B54FF0FF0C4CF437
:10056800E06C1CEA11541DBF1CEA135594EA0C0FE9
:1005780095EA0C0F00F0DEF82C4481EA030621EA24
:100588004C5123EA4C5350EA013518BF52EA03355F
:1005980041F4801143F4801338D0A0FB02CE4FF011
:1005A8000005E1FB02E506F00042E0FB03E54FF041
:1005B8000006E1FB03569CF0000F18BF4EF0010E39
:1005C800A4F1FF04B6F5007F64F5407404D25FEA35
:1005D8004E0E6D4146EB060642EAC62141EA5551E8
:1005E8004FEAC52040EA5E504FEACE2EB4F1FD0C2A
:1005F80088BFBCF5E06F1ED8BEF1004F08BF5FEAA8
:10060800500E50F1000041EB045170BD06F0004659
:1006180046EA010140EA020081EA0301B4EB5C0406
:10062800C2BFD4EB0C0541EA045170BD41F48011FE
:100638004FF0000E013C00F3AB8014F1360FDEBF23
:10064800002001F0004170BDC4F10004203C35DAFF
:100658000C341BDC04F11404C4F1200500FA05F382
:1006680020FA04F001FA05F240EA020001F0004223
:1006780021F0004110EBD37021FA04F642EB060199
:100688005EEA430E08BF20EAD37070BDC4F10C04C3
:10069800C4F1200500FA04F320FA05F001FA04F287
:1006A80040EA020001F0004110EBD37041F1000173
:1006B8005EEA430E08BF20EAD37070BDC4F120057E
:1006C80000FA05F24EEA020E20FA04F301FA05F2E6
:1006D80043EA020321FA04F001F0004121FA04F28E
:1006E80020EA020000EBD3705EEA430E08BF20EA5E
:1006F800D37070BD94F0000F0FD101F00046400098
:1007080041EB010111F4801F08BF013CF7D041EA19
:10071800060195F0000F18BF704703F0004652001D
:1007280043EB030313F4801F08BF013DF7D043EAEE
:100738000603704794EA0C0F0CEA135518BF95EAA4
:100748000C0F0CD050EA410618BF52EA4306D1D12B
:1007580081EA030101F000414FF0000070BD50EA4A
:10076800410606BF1046194652EA430619D094EAD4
:100778000C0F02D150EA013613D195EA0C0F05D1BE
:1007880052EA03361CBF104619460AD181EA030112
:1007980001F0004141F0FE4141F470014FF00000CA
:1007A80070BD41F0FE4141F4780170BD70B54FF065
:1007B800FF0C4CF4E06C1CEA11541DBF1CEA1355E5
:1007C80094EA0C0F95EA0C0F00F0A7F8A4EB0504C7
:1007D80081EA030E52EA03354FEA013100F08880BE
:1007E8004FEA03334FF0805545EA131343EA126387
:1007F8004FEA022245EA111545EA10654FEA00263C
:100808000EF000419D4208BF964244F1FD0404F5F4
:10081800407402D25B084FEA3202B61A65EB030550
:100828005B084FEA32024FF480104FF4002CB6EB0D
:10083800020E75EB030E22BFB61A754640EA0C008D
:100848005B084FEA3202B6EB020E75EB030E22BFCD
:10085800B61A754640EA5C005B084FEA3202B6EB0E
:10086800020E75EB030E22BFB61A754640EA9C00CD
:100878005B084FEA3202B6EB020E75EB030E22BF9D
:10088800B61A754640EADC0055EA060E18D04FEA5B
:10089800051545EA16754FEA06164FEAC30343EAFB
:1008A80052734FEAC2025FEA1C1CC0D111F4801FC8
:1008B8000BD141EA00014FF000004FF0004CB6E7C1
:1008C80011F4801F04BF01430020B4F1FD0C88BF60
:1008D800BCF5E06F3FF6AFAEB5EB030C04BFB6EB6B
:1008E800020C5FEA500C50F1000041EB045170BD5E
:1008F8000EF0004E4EEA113114EB5C04C2BFD4EB8B
:100908000C0541EA045170BD41F480114FF0000E0E
:10091800013C90E645EA060E8DE60CEA135594EA8A
:100928000C0F08BF95EA0C0F3FF43BAF94EA0C0F8D
:100938000AD150EA01347FF434AF95EA0C0F7FF402
:1009480025AF104619462CE795EA0C0F06D152EA56
:1009580003353FF4FDAE1046194622E750EA41063A
:1009680018BF52EA43067FF4C5AE50EA41047FF44B
:100978000DAF52EA43057FF4EBAE12E74FF0FF3CB0
:1009880006E000BF4FF0010C02E000BF4FF0010C81
:100998004DF804CD4FEA410C7FEA6C5C4FEA430CFA
:1009A80018BF7FEA6C5C1BD001B050EA410C0CBF49
:1009B80052EA430C91EA030F02BF90EA020F0020AB
:1009C800704710F1000F91EA030F58BF994208BF12
:1009D80090422CBFD8176FEAE37040F001007047CF
:1009E8004FEA410C7FEA6C5C02D150EA013C07D126
:1009F8004FEA430C7FEA6C5CD6D152EA033CD3D071
:100A08005DF8040B704700BF8446104662468C466A
:100A18001946634600E000BF01B5FFF7B7FF00289D
:100A280048BF10F1000F01BD4DF808EDFFF7F4FFC6
:100A38000CBF012000205DF808FB00BF4DF808ED51
:100A4800FFF7EAFF34BF012000205DF808FB00BF74
:100A58004DF808EDFFF7E0FF94BF012000205DF896
:100A680008FB00BF4DF808EDFFF7CEFF94BF01204B
:100A780000205DF808FB00BF4DF808EDFFF7C4FF44
:100A880034BF012000205DF808FB00BF4FEA410C8D
:100A98007FEA6C5C02D150EA013C0AD14FEA430C70
:100AA8007FEA6C5C02D152EA033C02D14FF00000AD
:100AB80070474FF0010070474FEA410212F50012EB
:100AC80015D211D56FF47873B3EB625212D94FEA8D
:100AD800C12343F0004343EA505311F0004F23FA77
:100AE80002F018BF404270474FF00000704750EACC
:100AF800013005D111F0004008BF6FF00040704789
:100B08004FF00000704700BF4FEA4102B2F1E043E6
:100B180024BFB3F5001CDCF1FE5C0DD901F0004CDC
:100B28004FEAC0024CEA5070B2F1004F40EB83002C
:100B380008BF20F00100704711F0804F21D113F158
:100B48003872BCBF01F00040704741F480114FEA91
:100B58005252C2F11802C2F1200C10FA0CF320FA1A
:100B680002F018BF40F001004FEAC1234FEAD32337
:100B780003FA0CFC40EA0C0023FA02F34FEA4303A1
:100B8800CCE77FEA625307D150EA01331EBF4FF02A
:100B9800FE4040F44000704701F0004040F0FE4045
:100BA80040F40000704700BF53B94AB9002908BF94
:100BB80000281CBF4FF0FF314FF0FF3000F072B932
:100BC800ADF1080C6DE904CE00F006F8DDF804E09C
:100BD800DDE9022304B070472DE9F047089E04467A
:100BE8008846002B4BD18A42154667D9B2FA82F261
:100BF8004AB1C2F1200701FA02F320FA07F795403B
:100C080047EA030894404FEA154E230CB8FBFEF759
:100C18001FFA85FC0EFB178843EA084307FB0CF113
:100C2800994209D9EB1807F1FF3080F01B819942EE
:100C380040F21881023F2B445B1AA4B2B3FBFEF0CA
:100C48000EFB103344EA034400FB0CFCA44509D90D
:100C58002C1900F1FF3380F00781A44540F204818C
:100C680002382C4440EA0740A4EB0C0400271EB1CC
:100C7800D4400023C6E900433946BDE8F0878B42DB
:100C880009D9002E00F0EB800027C6E9000138469C
:100C98003946BDE8F087B3FA83F7002F47D18B4276
:100CA80002D3824200F2FA80841A61EB0303012026
:100CB8009846002EE0D0C6E90048DDE702B9FFDE1D
:100CC800B2FA82F2002A40F08F80491B4FEA154E93
:100CD8001FFA85F80127B1FBFEFC230C0EFB1C1143
:100CE80043EA014308FB0CF1994207D9EB180CF1D0
:100CF800FF3002D2994200F2CD808446591AA3B23D
:100D0800B1FBFEF00EFB101443EA044408FB00F8A4
:100D1800A04507D92C1900F1FF3302D2A04500F2F3
:100D2800B6801846A4EB080440EA0C409FE7C7F1D8
:100D3800200CBB4022FA0CFE4EEA030E01FA07F41F
:100D480020FA0CF521FA0CF34FEA1E482543B3FBB1
:100D5800F8F92C0C08FB19331FFA8EFA44EA0343FE
:100D680009FB0AF49C4202FA07F200FA07F10BD9D0
:100D78001EEB030309F1FF3080F087809C4240F2AC
:100D88008480A9F1020973441B1BADB2B3FBF8F0D0
:100D980008FB103345EA034400FB0AFAA24508D9C8
:100DA8001EEB040400F1FF336BD2A24569D9023867
:100DB800744440EA0940A0FB0289A4EB0A044C45AC
:100DC800C2464B4654D351D0002E69D0B1EB0A0528
:100DD80064EB030404FA0CFCFD40FC404CEA0505F6
:100DE800C6E90054002747E7C2F1200320FA03F7B9
:100DF800954001FA02F021FA03F34FEA154E384301
:100E0800010CB3FBFEF71FFA85F80EFB173341EA16
:100E1800034107FB08F38B4204FA02F407D9691867
:100E280007F1FF3C2FD28B422DD9023F2944CB1A20
:100E380081B2B3FBFEF00EFB103341EA034100FB25
:100E480008F38B4207D9691800F1FF3C17D28B428F
:100E580015D902382944C91A40EA07473BE73746FB
:100E6800304609E70746E7E61846FBE64145ABD2B8
:100E7800B8EB020A69EB0E0201381346A4E7604694
:100E8800E9E7184695E76746D1E781467CE70238E7
:100E98002C4447E7ACF1020C2B442FE7384608E70F
:100EA8003746E9E6704700BF38B50E4A0E4B127850
:100EB8001B6805464FF47A70B0FBF2F0B3FBF0F014
:100EC80000F0AAF808B90F2D01D9012038BD044651
:100ED800024629464FF0FF3000F05AF8034B2046EF
:100EE8001D6038BD000000202801002004000020FB
:100EF80008B50B4B1A6842F400721A601A6842F47B
:100F080080621A601A6842F480721A60032000F046
:100F18002DF80020FFF7C8FF06F048FE002008BDA6
:100F2800003C0240034A044B11681B780B441360D1
:100F3800704700BFC403002000000020014B186860
:100F4800704700BFC403002038B50446FFF7F6FF1A
:100F5800631C054602D0044B1B781C44FFF7EEFFC8
:100F6800401BA042FAD338BD00000020074AD368CE
:100F78004FF6FF010B40000243F0BF6300F4E0604E
:100F880043F400330343D360704700BF00ED00E033
:100F9800184BDB68C3F3022330B4C3F10705042DF3
:100FA80003F1040428BF0425062C19D9033B4FF08C
:100FB800FF349C4022EA04044FF0FF32AA4021EAA1
:100FC800020101FA03F2224312010028D2B20ADB1D
:100FD80000F1604000F5614080F8002330BC7047A4
:100FE80000242346E8E7044B00F00F0003441A7678
:100FF80030BC704700ED00E0FCEC00E0002807DBA7
:1010080000F01F0101234009024A8B4042F82030BA
:10101800704700BF00E100E00138B0F1807F0ED2D8
:10102800084B10B4084C5860F02084F823000022C4
:10103800072110469A6019605DF8044B704701203B
:10104800704700BF10E000E000ED00E0F8B504468E
:10105800FFF774FF002C54D00222236884F835204F
:101068001A68002122F0010284F8341005461A603B
:1010780005E0FFF763FF401B05283BD823681A6883
:10108800D107F6D4D4E90126D4E903513243606983
:101098001F682A43D4E906650A430243216A354892
:1010A80032432A430A43616A3840042942EA00026B
:1010B80029D01A605A6922F007021143DAB22E4881
:1010C8005961103AA0FB021212092C4923F47F73CC
:1010D800895CE16523F00303032A88BF04333F22B8
:1010E8008A4001250021A36508469A60616584F855
:1010F8003550F8BD032320226265184684F8353040
:10110800F8BD0120F8BDD4E90B0101430A43A56AE3
:101118001A605A6945F0040122F0070211430028B9
:10112800CCD07EB1B6F5005F16D0022D03D9032DC1
:10113800C4D1C201C2D5012340226265184684F891
:101148003530F8BD012D03D0F3D3022DB6D1F0E729
:10115800B0F1C07FB2D1EEE7032DAFD801A252F8AB
:1011680025F000BF3F1100083B1100083F1100089F
:10117800591100083F8010F0ABAAAAAA08A90008D4
:10118800F0B490F83440012C35D090F83540866D95
:101198000125AC4280F8345027D104680227002585
:1011A80080F8357045652568876825F48025402FC7
:1011B800256063600ABFA260A160E160C16D18BFCD
:1011C800E2603F238B40026CB360236843F0160350
:1011D80023601AB1236843F008032360236843F0AF
:1011E800010323600020F0BC7047002380F83430EE
:1011F800F0BC022070470220F0BC704770B504466E
:10120800866DFFF79BFE94F83530022B06D08022BE
:101218000023626584F83430012070BD2368216C96
:101228001A6822F016021A605A6922F080020546EE
:101238005A6131B31A6822F008021A601A6822F05B
:1012480001021A6005E0FFF779FE401B05280FD858
:1012580023681B6813F00103F5D1E16D3F228A4032
:101268000121B260184684F8343084F8351070BD16
:10127800202200230320626584F8343084F8350086
:1012880070BDA26C002AD5D1D8E700BF90F83530E0
:10129800022B03D080234365012070470268052391
:1012A80080F83530136823F001031360002070477D
:1012B800F0B583B00023876D0193C36D3D68654920
:1012C80008229A402A4204460E6803D0016808683A
:1012D800400759D401229A402A4203D0216849691B
:1012E800080674D404229A402A4203D02168096867
:1012F800890766D410229A402A4203D021680868D8
:1013080000074BD420229A402A4214D0216808684A
:10131800C00610D5BA6094F83520052A63D00B684A
:1013280013F4802F0B687ED0190340F18980E36B9A
:101338000BB120469847636D23B3636DDA071AD55E
:101348000523226884F835301368434923F00103E4
:10135800A1FB06161360B60A02E01368DB0704D582
:10136800019B0133B3420193F7D90022012384F88A
:10137800342084F83530E36C23B1204603B0BDE84F
:10138800F040184703B0F0BD086820F0040008607A
:10139800BA60626D42F0010262659BE7BA600A6852
:1013A80012F4802F0A6818D1D20503D40A6822F0F3
:1013B80008020A60226C002AA4D020469047E36DF8
:1013C800A0E7BA60626D42F00402626592E7BA6013
:1013D800626D42F00202626584E71103EAD5A26CED
:1013E800002AEAD18EE70A68206C22F016020A6009
:1013F8004A6922F080024A6138B30A6822F008027A
:101408000A603F22216D02FA03F300200122BB602B
:1014180084F8340084F835200029B3D0204603B07E
:10142800BDE8F040084713F4807380D10A680120B2
:1014380022F010020A6084F8343084F8350076E728
:10144800636C002B7FF475AF75E7A26C002AD4D1CA
:10145800D7E700BF28010020B5814E1B90F8350062
:10146800704700BF2DE9F04F884683B0D1F800B02F
:10147800DFF898E100244FF0010902E00134102C54
:1014880077D009FA04F20BEA02039A42F6D1D8E9B6
:10149800012522F0100C66000CF1FF370321B14042
:1014A800012F6FEA010105FA06F565D9C7680F40F3
:1014B8003D43C560076802F003050F4005FA06F6CC
:1014C8003E43D7000660D9D54B4D00210191696C88
:1014D80041F480416964696C24F0030606F1804692
:1014E80001F4804106F59C36019104F00305019949
:1014F800B768AD000F21A94027EA01013F4FB84264
:1015080011D007F58067B84268D03D4FB84269D01E
:101518003C4FB8426BD03C4FB8420CBF042707275A
:1015280007FA05F52943B160DEF80010DD43D6035C
:1015380054BF29401943CEF80010DEF80410970371
:1015480054BF29401943CEF80410DEF80810D6021B
:1015580054BF29401943CEF80810DEF80C10920247
:1015680004F1010454BF29401943102CCEF80C1083
:1015780087D103B0BDE8F08F876807EA010AD8F879
:101588000C70B74047EA0A078760D0F804A0C2F396
:1015980000172AEA030AA74047EA0A074760C7680C
:1015A8000F403D43BCF1020FC56083D14FEAD40A16
:1015B80000EB8A0A04F00705DAF82070AD004FF056
:1015C8000F0C0CFA05FC27EA0C0CD8F8107007FA77
:1015D80005F545EA0C05CAF820506BE709FA05F548
:1015E8002943A0E7022707FA05F529439BE70327C4
:1015F80007FA05F5294396E7003802400000024043
:1016080000080240000C024000100240003C01406B
:101618000369194214BF0120002070472DE9F041E9
:101628000746164698468DB23C6804E061694A054B
:1016380007D4731C1CD1606935EA0000F6D1BDE8F7
:10164800F081236800226FF4806043F40073202146
:10165800236060613A6387F83D1087F83E203B6C51
:1016680087F83C2043F004033B640120BDE8F08187
:10167800FFF764FCA0EB0800B04201D8002ED3D1DC
:10168800002220233A6387F83D3087F83E203B6CE0
:1016980087F83C2043F020033B640120CFE700BFDC
:1016A800036D5BB9C36C0268012B836C0DD0C3F367
:1016B80007231361036D013303657047036D012B25
:1016C80009D0036D022B0ED07047DBB21361036D96
:1016D800023303657047836C0268DBB21361036DE4
:1016E80001330365704790F83D30222B0ED090F8F7
:1016F8003D30212BE8D1426A036812F8011B1961B9
:10170800438D4262013B9BB24385DDE70268136863
:1017180043F4807313607047F8B506460D461746C4
:10172800306804E04469620507D46B1C16D143692C
:1017380013F08003F6D00020F8BD6FF480612022FA
:101748004161336386F83D2086F83E30326C86F876
:101758003C3042F0040232640120F8BDFFF7EEFB92
:10176800C01BA84201D8002DDAD100222023326301
:1017780086F83D3086F83E20336C86F83C2043F0EE
:10178800200333640120F8BD70B505460C461646A3
:1017980008E05169C9061BD4FFF7D0FB801BA042A3
:1017A80007D834B12A68536913F04003F1D00020F8
:1017B80070BD002220232A6385F83D3085F83E203D
:1017C8002B6C85F83C2043F020032B64012070BD6E
:1017D8006FF01000202150612B6385F83D1085F8CB
:1017E8003E302A6C85F83C302A64012070BD00BF69
:1017F8002DE9F843814690461E460F0C8CB2D9F865
:10180800005009E0A96934EA01030CBF0120002057
:1018180080450BD1731C0CD1012FF3D16B6934EACD
:1018280003030CBF012000208045F3D00020BDE851
:10183800F883FFF783FB089BC01AB04201D8002E3B
:10184800DDD100222023C9F8302089F83D3089F8FD
:101858003E20D9F8403089F83C2043F02003C9F8ED
:1018680040300120E3E700BF2DE9F047046826680F
:1018780046F48066266084B026680D9F46F480761C
:10188800884691469A4626600C9B009700224FF0A6
:1018980001110546FFF7ACFF58B12B681B68DB0543
:1018A80003D4032004B0BDE8F0874FF400732B6421
:1018B800F7E72B682F495FFA88F808F0FE021A61EB
:1018C80028463B460C9AFFF7A9FE18B1012004B040
:1018D800BDE8F0872B6803905A6903929B690393CC
:1018E8003A460C99039B2846FFF716FF48BBBAF106
:1018F800010F2B682ED15FFA89F21A613A460C99CA
:101908002846FFF709FFE0B929680B6843F480739C
:101918000B6002460C9B00974FF001112846FFF719
:1019280067FF0028B9D12868124948F0010202610E
:101938003B4628460C9AFFF771FE003018BF01207D
:10194800B0E72B6C042BC1D12A68136843F40073E9
:101958001360BBE74FEA19221A610C993A462846E8
:10196800FFF7DAFE0028ECD12A685FFA89F31361E1
:10197800C4E700BF02000100F8B506460D46174649
:10198800306804E04469620507D46B1C16D14369CA
:1019980013F00403F6D00020F8BD6FF48061202214
:1019A8004161336386F83D2086F83E30326C86F814
:1019B8003C3042F0040232640120F8BDFFF7BEFA61
:1019C800C01BA84201D8002DDAD10022202332639F
:1019D80086F83D3086F83E20336C86F83C2043F08C
:1019E800200333640120F8BD002800F09F80F8B57B
:1019F80090F83D30044603F0FF02002B00F08F8082
:101A08002368242284F83D201A6822F001021A6013
:101A18001A6842F400421A601A6822F400421A60F6
:101A280002F0D8FC61684B4B99424BD84A4B98421C
:101A38007AD92268494B5568A3FB00639B0C25F0B3
:101A48003F051D435560156A013325F03F052B43BB
:101A58001362D5694900431EB3FBF1F30133C3F3A5
:101A68000B0325F44F45042B38BF042325F0FF054D
:101A78002B43D361D4E907351068216920F0C000F1
:101A88002B43034313609068E568636920F40340BF
:101A980020F0FF00294301439160D168A06921F03B
:101AA800FF0103430B43D3601168002341F0010198
:101AB800202511601846236484F83D50236384F878
:101AC8003E30F8BD264B98422ED92268234B5668E3
:101AD800244FA3FB00539D0C26F03F062E434FF4E2
:101AE8009673566003FB05F3A7FB0353156AA668B4
:101AF8009B0925F03F0501332B431362D56925F473
:101B08004F45013825F0FF0596B901EB4101B0FBBF
:101B1800F1F00130C0F30B00C0B90123A8E780F849
:101B28003C2006F05FF86BE70120F8BD0120704704
:101B380001EB810101EB8101B0FBF1F00130C0F351
:101B48000B000028E9D040F4404391E740F40043FB
:101B58008EE700BFA08601007F841E0083DE1B4342
:101B6800FF083D00D34D62102DE9F041044684B0D2
:101B780098460E461746FFF7E1F994F83D30202BBA
:101B880004D00226304604B0BDE8F0810546009036
:101B98001923012261492046FFF72AFE0028F0D1C7
:101BA80094F83C30012BECD023681A680121D20745
:101BB80084F83C1002D41A680A431A601A68584814
:101BC80022F400621A60212284F83D20102284F851
:101BD8003E2000222264A4F82A80618DE062E26A35
:101BE8006762082A218506D0012A04D0824202D0E1
:101BF800226B122A03D11A6842F480721A60009587
:101C08000A9B00224FF001112046FFF7F1FD58B161
:101C180023681B68DB0544BF4FF400732364012667
:101C2800304604B0BDE8F08123692268B3F5804FDF
:101C380061D106F0FE0616612B460A9A39492046FC
:101C4800FFF7ECFC06460028E9D1236803905A699F
:101C580003929B690393039B30E0FFF75DFD2A46DF
:101C68000A9900283DD1D4F824C02768B4F828E0A0
:101C7800E046204618F8013B3B61638DC4F8248098
:101C8800013B9BB26385D7F814800EF1FF339BB2FA
:101C980018F0040F23850ED06BB19CF801303B611E
:101CA800678D013FAEF1020E0CF10203BFB2A4F83A
:101CB80028E063626785FFF75FFE90B9238D0A9974
:101CC8002A462046002BC8D121680A68202042F401
:101CD80000720A6084F83D0084F83C3084F83E3095
:101CE80050E7236C042B9AD12268136843F40073DD
:101CF8001360012646E7F31103F0060343F0F003EF
:101D0800136109490A9A2B462046FFF787FC0028E9
:101D180085D12368F6B21E618EE700BF020010006D
:101D28000000FFFF02000100080001002DE9F04358
:101D3800044687B098460E461746BDF83C90FFF714
:101D4800FDF894F83D30202B04D00226304607B029
:101D5800BDE8F08305460090192301227C492046FE
:101D6800FFF746FD0028F0D194F83C30012BECD069
:101D780023681A680121D00784F83C1002D41A6835
:101D88000A431A601A68734822F400621A60222310
:101D980084F83D304022002384F83E202364A4F8D0
:101DA8002A90B4F82AC00E9B63623146109E0096B2
:101DB80001954346E0623A46A4F828C02046FFF75A
:101DC80053FD0646A8B9238D2268BBB90290536912
:101DD800029393690293029B136843F400731360A0
:101DE8000023202284F83D2084F83C3084F83E30DB
:101DF800ACE70126304607B0BDE8F083012B7BD065
:101E0800022B00F095800590516905919269059221
:101E1800059A514F032B50D8012B7CD0022B0095EB
:101E2800109B4FF00002394620461CD0FFF7E0FC1B
:101E38000028DED12368626A196821F4806119607C
:101E48001B691370638D626A218D0095013B9BB2FB
:101E580002F1010C01396385109B21850246C4F803
:101E680024C039462046FFF7C3FC0028C1D12368A7
:101E7800616A1A6842F400721A601B690B70638DFC
:101E8800606A218D2268013B9BB26385126900F16B
:101E9800010C4B1EC4F824C023854270238D628D2B
:101EA800616A013B013A9BB292B201312385628596
:101EB8006162002B94D0032BAED92A461099204694
:101EC800FFF762FC002894D12268636A12691A70CD
:101ED800628D2068238D616A013A92B262854269F7
:101EE800013B9BB201F1010C52072385C4F824C0C1
:101EF800DFD503694B70D1E7116821F48061116067
:101F0800039051690391916903910399116841F410
:101F1800007111607DE72A4610992046FFF734FCCE
:101F280000287FF466AF2268636A12691A70B5E701
:101F3800116821F480611160116841F40061116039
:101F480004905169049192690492049A61E700BF70
:101F5800020010000000FFFF040001002DE9F04F0F
:101F6800044685B01D4689469246FEF7E7FF94F879
:101F78003D30202B03D0022005B0BDE8F08F064687
:101F880000901923012252492046FFF731FC00280E
:101F9800F1D194F83C30012BEDD02268136801216F
:101FA800D80784F83C1064D513684A49DFF820B193
:101FB80023F400631360242384F83D300023236452
:101FC80009F0FE09E1624FF00108136843F48073D9
:101FD80013604FF001112B46009600222046FFF7B0
:101FE80007FC2368002850D1C3F81090FEF7A6FF1D
:101FF800226806465369516994F83D00A02803F009
:10200800020301F4806118D0BBB9B1B9A02701E07F
:102018009BB991B9FEF792FF801BA84200D80DB971
:1020280084F83D7022685369516994F83D00A028EE
:1020380003F0020301F48061EAD1202784F83D709F
:10204800536913F0020F136827D16FF4806143F4CA
:1020580000731360204651611923012200965946E6
:10206800FFF7C6FB68B908F10108D04505D2226818
:10207800ABE713680B43136096E784F83D7084F868
:102088003C00012005B0BDE8F08F1B68DB051CD5BE
:102098004FF40073236403206EE743F400730020B9
:1020A8001360039053690393936903930849009657
:1020B800192301222046039DFFF79AFB0028E0D14F
:1020C80084F83D7084F83C0056E7032054E700BFCD
:1020D800020010000000FFFF704700BF704700BFFC
:1020E800704700BF704700BF704700BF704700BF10
:1020F800704700BF704700BF704700BF704700BF00
:10210800836BD3E90D0170B593F83D401A68E6B2C8
:1021180040B30024C463F1B11568CC6325F480652D
:1021280015605C85046500200865116821F00101CF
:10213800116093F83D10602929D006F02804282C56
:1021480018D02021002283F83D1083F83E2018463D
:10215800FFF7D2FF70BD146824F4806414605985B9
:102168000165E2E7F1B11468C86324F4806414607F
:102178005885D8E7116841F0010111601168002005
:1021880041F480611160186383F83D40DFE7002265
:10219800202183F83D10184683F83E201A64FFF783
:1021A800ADFF70BD106820F4806010605985BCE7F1
:1021B80090F83D2090F83E10102938B5D2B2044668
:1021C800036854D002F0280128294BD05968090522
:1021D80042D50022226384F83E205A6812F4006235
:1021E80029D05A68606B22F400625A6090F8353042
:1021F800012B5CD0434B0365FFF748F850B12268C8
:10220800606B1368016D23F001032025136084F8C7
:102218003D508847236C190704D02268536823F47B
:10222800E063536094F83D30226C5207DBB201D56D
:10223800282B59D038BD94F83D10602921D05A690F
:10224800500605D5626A1B691370636A01336362BD
:102258002046FFF751FFDDE7602ABAD0202284F834
:102268003D20B6E70022226384F83D10B5E7222A14
:10227800A8D11A6822F400621A605A681005EDD5D0
:10228800A7E7202184F83D1022645A69550606D52F
:10229800626A1B691370626A2368013262621A6893
:1022A80022F001021A602046FFF728FFB2E7A06B70
:1022B800144B0365FEF7EAFF0028ABD023685A6980
:1022C800520606D5626A1B691370626A2368013276
:1022D80062621A68A06B22F0010220211A60036D65
:1022E80084F83D10984795E7074BE36220220023C6
:1022F8002363204684F83D2084F83E30FFF7F6FE3D
:1023080038BD00BF092100080000FFFF70B5036851
:1023180004465868E56A94F83E2094F83D10D2B215
:10232800102A8CB020D0402A1ED0226CC9B2002AB4
:1023380000F0BB805A690026C2F34005002D78D012
:1023480085057BD5226C02B19E6994F83D2002F088
:102358002802282A00F01B826FF00201002259612E
:1023680084F83C200CB070BD99695A69D6073AD4F4
:10237800B5F52A0FF6D0B5F12A4FF3D0160740F17C
:102388009A80850500F1F58111F0040F596800F075
:10239800FF800905E6D41606C2F3800140F1A0814A
:1023A800450540F19D81002940F09D8194F83D202C
:1023B800208D94F83E10E56AD2B2C9B2002840F0E8
:1023C800DA82212A00F073834029CBD1222AC9D18D
:1023D800628D92B2002A00F0848394F83E20402A4D
:1023E80040F0B6808DE1850562D5E26AB2F52A0F24
:1023F80000F0E881E26AB2F12A4F04BF0822E262E3
:1024080094F83E20402A00F0D6812269B2F5804F28
:1024180000F09781226D002A00F0D781226D012AF1
:10242800A0D1626CD21102F0060242F0F1021A61E8
:1024380098E7D60602D5860500F1D78001F0F701A6
:102448002129C2F380054ED0510640F18B80420508
:1024580040F18880002D40F0888094F83D10628D0E
:1024680092B2C9B2002A3FF47DAF626A1B69137049
:10247800638D626A013B9BB26385638D01329BB2B7
:102488006262002B7FF46EAF2A297FF46BAF22685B
:102498005368222523F4806328215360204625634E
:1024A80084F83D10FFF71EFE5CE79E695A6943E712
:1024B80015073FF569AF96077FF566AF85057FF588
:1024C80063AF94F83E20E06A256B94F83D1022290A
:1024D800D2B200F0B38100220A925A690A929B692B
:1024E8000A930A9B3EE7120627D5460525D53DBB2C
:1024F80094F83D00628D92B2C0B2002A3FF432AF28
:10250800656A15F8012B1A61628D6562013A92B20B
:102518006285628D92B2002A7FF424AF29287FF465
:1025280021AF5A68282522F480625A602046216328
:1025380084F83D50FFF7D4FD14E7002D3FF412AFA7
:1025480080057FF50FAF628D92B2002A3FF40AAF83
:10255800626A12F8011B1961638D6262013B9BB2CA
:102568006385FFE6002D3FF4FDAE86057FF5FAAEE4
:10257800628D92B2002A3FF4F5AE626A1B6913704D
:10258800638D626A013B9BB2013263856262E9E650
:102598000E053FF5E7AE5506C2F3800140F1B7805E
:1025A800420540F1B480002940F0B48094F83D2001
:1025B800222A7FF4D7AE628D92B2032A40F24B8270
:1025C800626A1B691370638D626A013B9BB2638503
:1025D800638D9BB20132032B62627FF4C3AE226823
:1025E800536823F480635360BCE694F83D105A683E
:1025F80022F4E0625A600B955A690B921A6842F00D
:1026080001021A600B9A1A6822F480621A605A68EA
:102618001605CDB221D505F0F702222A00F0ED808B
:10262800606B0268526892B26285628D92B21AB18A
:10263800226C42F0040222645A6822F400625A6052
:10264800FEF70CFF012808D0606B974B0365FEF777
:102658001DFE10B1606B036D9847638D9BB213B379
:1026680023685A6950070AD5626A1B691370628D1C
:10267800616A2368013A92B20131628561625A69DE
:10268800510609D5626A1B691370638D626A013B42
:102698009BB2013263856262638D9BB21BB1236C6E
:1026A80043F004032364236C002B40F09C802A2D04
:1026B80000F0E48094F83D30282B00F0E780236B8D
:1026C800222B02D0222D7FF44DAE0023202223633B
:1026D800204684F83D2084F83E30FFF703FD41E6AC
:1026E80000293FF43FAE82057FF53CAEE16A94F8DD
:1026F8003D20212A00F0048194F83E30402B7FF4DD
:1027080031AE20460CB0BDE87040FEF7C9BF0029C5
:102718003FF428AE86057FF525AEE06A628D616AD2
:1027280092B2042A00F01181628D92B2032A00F05D
:102738001381628D92B2022A00F036811B690B70F8
:102748001EE794F83D20212A626C16BF42F0010270
:1027580002F0FE02D2B21A61626B002A00F08A808F
:10276800D26B002A00F086805A6842F400625A60F0
:10277800F8E5626C616BD2B21A61002939D0CA6B74
:10278800002AF1D1A26BD26B002AEDD1EAE55A6892
:1027980022F480625A606FEA960133064FF0000314
:1027A80001F0010154BFA289228B84F83C302046F5
:1027B800FFF79AFCD6E5226D7AB9626C02F0FE0248
:1027C8001A61CFE50122E2621AE6626CD21102F0C8
:1027D800060242F0F0021A61C4E5626C42F001029E
:1027E800D2B21A61BEE520460CB0BDE87040FFF7D2
:1027F800DFBCA26B002AC2D1B4E5A06B02685268A4
:1028080092B26285628D92B21AB1226C42F00402D1
:1028180022645A6822F400625A60FEF71FFE0128FB
:102828003FF41BAFA06B204B0365FEF72FFD00287C
:102838003FF413AFA06B036D98470EE7216D11B9F4
:10284800402A00F09C80226D22B92169B1F5404FE1
:1028580000F09C80628D92B252BB03925A69039237
:102868009A690392039A1A6842F400721A60002364
:10287800236577E5A26B002A85D173E528222363B7
:10288800204684F83D20FFF72DFC13E7074BE36251
:10289800202200232363204684F83D2084F83E301C
:1028A800FFF724FC5EE500BF092100080000FFFFD8
:1028B800628D92B2012A00F0AD80628D92B2022A36
:1028C80000F017811A6842F480621A605A68150588
:1028D8000ED510F5803F07D001381F2808D8A44A24
:1028E80022FA00F0C00703D55A6842F480525A60B1
:1028F800002209925A6909929B690993099BB6E7D4
:10290800628D92B2002A7FF423AE082905D02029CF
:1029180003D011F5803F40F043815A6822F4E06209
:102928005A6019680022202041F40071196022635E
:1029380084F83D0094F83E3084F83E20402B204631
:1029480000F0D480FFF7C8FB0CE55A6822F48062D7
:102958005A601B690B7013E65A68042822F48062D7
:102968005A603FF4EBAE02283FF4E8AE1A6822F44E
:1029780080621A60E2E6212A3FF42AAD24E501913B
:102988005A6901929B690193019BEBE402925A698F
:1029980002929A690292029A1A6842F480721A6044
:1029A800236D01332365DDE401281A687BD01028E4
:1029B80079D0042800F00181022800F0FE8042F45A
:1029C80000721A601B690B70638D626A2168013B93
:1029D8009BB263850B69511C61625370638D2168DA
:1029E800626A013B9BB263854B68013223F44073F2
:1029F800202062624B6084F83D0094F83E30402B02
:102A080049D00022122384F83E2020462363FFF792
:102A180065FBA7E410F5803F00F0AE80082800F0C1
:102A28009780202800F09480122D00F08E801028C6
:102A380005D8504A22FA00F0C00700F1CD801A6884
:102A480022F480621A60002206925A6906929B69F3
:102A58000693069B0BE7E16A02293FF483AC012A3F
:102A68003FF680AC1A68616A22F480621A605A687C
:102A780022F4E0625A601B690B70638D626A013B45
:102A88009BB22021638584F83D1094F83E300132D2
:102A9800402B6262B5D1002384F83E302046236380
:102AA800FFF728FB5EE422F480621A608AE7082DAB
:102AB8003FF433AF202D3FF430AF15F5803F3FF49E
:102AC8002CAF5A68112622F4E062002520215A60B2
:102AD8002046266384F83E5084F83D10FFF7FCFA40
:102AE80040E45A6822F480625A603BE4FFF700FB36
:102AF80038E4102820D91A6822F480621A601A680B
:102B080042F400621A605A6812050DD510F5803F2C
:102B180006D001381F2807D8154AC240D60703D562
:102B28005A6842F480525A60002208925A69089200
:102B38009B690893089B9AE60E4AC240D107DAD5EA
:102B48001A6842F480621A60DDE701283FF477AF23
:102B58001A68002122F480621A6007915A69079264
:102B68009A690792079A1A6842F400721A607EE618
:102B780081800080140001001A6822F480621A60C3
:102B88005A6812F400621CD01A68002122F480628C
:102B98001A6004915A6904929B690493049B66E63F
:102BA8005968112621F4E0612025596020462663E2
:102BB80084F83E2084F83D50C4E642F480621A60EE
:102BC80000E705925A6905929A690592059A1A686A
:102BD80042F400721A604AE61A6842F480621A6087
:102BE80031E700BF2DE9F84380460E4615461F46DB
:102BF800FEF7A4F98146D8F8004001E07B1C0AD111
:102C0800A06836EA00030CBF01200020A842F5D1D5
:102C18000020BDE8F883FEF791F9A0EB0900B8425F
:102C2800E9D30122002388F84120032088F84030A6
:102C3800EFE700BF002800F08580F8B590F8413034
:102C4800044603F0FF02002B75D00222216884F8A5
:102C58004120C8696369E56820F47B6020F00F00B3
:102C68009342C8610A6227D0A368002D0CBF1025C3
:102C780020250120202B98BF6D0001F063FC2269FC
:102C8800B2F5007F60D0B0FBF5F000EB80004300A8
:102C98006069B3FBF0F305333549A1FB0313DB0887
:102CA8005908881EFD2803F001035AD9636C43F0C4
:102CB800100363640120F8BD2269A769D4F820E0F5
:102CC800DFF8C0C0D4E9016013430B6246EA000391
:102CD800CA6943F400633B432B4302EA0C021343E3
:102CE800BEF1010FCB6120D1224A234B91420CBF88
:102CF80019464FF04021214BCA69636302EA0C026E
:102D08004FF0020CCA6140EA0703C1F820C0CA6943
:102D180043F400632B43134336F400709BB214BF93
:102D280000224FF480721343CB61002001236064BA
:102D380084F84130F8BD124B80F84020436304F01A
:102D480091FF82E701207047E368616973B1AD00C4
:102D5800B0FBF5F000EB80004300B3FBF1F3053363
:102D68009AE741EA0323E5682168A6E7ED00EFE763
:102D7800CDCCCCCC0038004000340040BD31000838
:102D88008930000840F0FFFF00293ED0002A3CD0DF
:102D980038B590F84030012B4FD0012380F84030EF
:102DA80090F84130012B32D103240023056880F8C4
:102DB80041404364EB69416203F00703A3422BD00F
:102DC800052B29D0028542850446806B1C4A238D39
:102DD80002641C4AC2631C4AC26405F10C02FEF775
:102DE800CFF9F0B92368DA69510503D4DA6942F4F6
:102DF8008062DA615A68920703D45A6842F0020284
:102E08005A60002384F8403038BD01207047002301
:102E180080F84030022038BD53009BB203854385BB
:102E2800D2E7636C012243F0080300216364104673
:102E380084F8412084F8401038BD022038BD00BF16
:102E48005530000861300008913100082DE9F04341
:102E5800436833F4007385B0044604D0B3F5807F2B
:102E680066D0002535E0806B20B1FEF7C7F9002851
:102E780040F0828000256423012202212046FFF7CA
:102E8800B1FE30B1636C012213436364154684F8C4
:102E980041206423002280212046FFF7A3FE30B1A1
:102EA800636C012213436364154684F84120236848
:102EB800DA69002122F48062DA6100919A6800924E
:102EC800009A5A6822F002025A6094F84120052AB2
:102ED80006D00123284684F8413005B0BDE8F083C8
:102EE800E06B20B1FEF78AF900284DD123685448D9
:102EF800544A616883420CBF13464FF040230020B8
:102F0800DA6922F48062DA610190DA6801929A68DB
:102F18000192019A5A6822F001025A6051BB636C0F
:102F2800012243F040036364154684F84120D0E74A
:102F3800C06B38B3FEF762F920B3636C43F0080343
:102F48006364012594F84130052B24D02368DA699D
:102F5800616822F480620020DA610390DA680392E3
:102F68009A680392039A5A68B1F5807F22F00102A9
:102F78005A60D4D0DB68ACE7636C43F00803636441
:102F8800012578E70025DDE7626C236842F0080236
:102F980062640125ABE7A06B38B1FEF72FF920B1C9
:102FA800636C43F0080363640125FDF7C7FFDFF88E
:102FB8009080244F06464FF0010904E0FDF7BEFF5C
:102FC800801B64282AD8236843450CBF3A464FF033
:102FD800402292689207F1D5DFF86480194F4FF0CC
:102FE800010905E0FDF7AAFF801B64281ED82368A5
:102FF80043450CBF39464FF040218A6812F08002E1
:10300800F0D1C86920F48060C86102928A6802928F
:10301800029A4A6822F002024A6098E7636C43F019
:1030280001036364012584F84190CCE7626C23684E
:1030380042F001026264012584F84190D8E700BF9C
:103048000038004000340040436B184708B5806BD7
:1030580004F028FD08BD00BFC369806B10B543B9F3
:1030680001684A68012422F002024A60438580F818
:10307800414004F00DFD10BD704700BF704700BF10
:1030880010B5036884B09A68019290F84120042A28
:10309800044634D094F84130032B01D004B010BD5D
:1030A800019B9B0710D523685A6810060CD5616AE6
:1030B80031F8022BDA60628D6162013A92B2628560
:1030C800628D92B2002A49D0019B1907E6D5236880
:1030D8005A689206E2D55A68002122F0A0025A6086
:1030E80003919B6803930123039A84F84130636C2E
:1030F80043F0040363642046FFF7C0FFCEE7019A5C
:10310800D1070ED55A6852060BD5C16ADA6821F87C
:10311800022B428EC162013A92B24286428E92B22C
:103128003AB3019B5906B5D523685A689206B1D5BA
:103138005A68002122F060025A600291DA6802920D
:103148009B6802930123029A84F84130636C43F030
:10315800020363642046FFF791FF9BE75A68012149
:1031680022F0A0025A60204684F8411004F090FC36
:10317800AAE75A68012122F060025A6080F84110DB
:10318800FFF77AFFCDE700BF806B01684B6810B589
:10319800002223F0030301244B604285428680F815
:1031A8004140436C43F008034364FFF767FF10BDD9
:1031B800704700BF30B5934A0568934BA96887B03C
:1031C800954218BF4FF040230091996801916968B2
:1031D800426802915968039132F40072044675D02E
:1031E800019A91071AD5039A120617D5426A911CBB
:1031F80012884162DA60428D013A92B24285428D6C
:1032080092B25AB95A6822F0A0025A60438E9BB211
:1032180023B9012380F84130FFF7CAFF009BDB0781
:103228001CD5029B5D0619D5E36A2268981CD168F3
:10323800E0621980638E013B9BB26386638E9BB20A
:1032480063B9536823F060035360638D9BB22BB955
:10325800012384F841302046FFF7AAFF009B580657
:103268001BD5029B990618D5226866485168664B9B
:1032780021F06001824218BF4FF0402351605A6824
:10328800012122F0A0025A6084F84110636C43F0D7
:10329800020363642046FFF7F1FE019B1A076ED50F
:1032A800039B9B066BD522685649574B8A4218BF29
:1032B8004FF040230120596821F0A001596053685C
:1032C80023F06003536084F841004EE0009B9A07A6
:1032D80002D5029B1B0677D4019BD80702D5039B16
:1032E80059064ED4019B5A0622D5039B9B061FD52F
:1032F80023684449444A8B4218BF4FF040220020BB
:10330800516821F0600151605A6822F0A0025A60A9
:103318000490DA6804929B6804930123049A84F861
:103328004130636C43F0020363642046FFF7A6FE56
:10333800009B1D0723D5029B980620D5236831489A
:103348005968314A21F0A001834218BF4FF040224A
:1033580059605168002021F06001516005909B6818
:1033680005930123059A84F84130636C204643F0A5
:103378000403636407B0BDE83040FFF77FBE07B0C1
:1033880030BD20681F49204AE36A884218BF4FF0C1
:103398004022981CD168E0621980638E013B9BB281
:1033A8006386638E9BB2002B9CD1536823F0600325
:1033B8005360638D9BB2002B94D1012384F8413074
:1033C8002046FFF7F5FE8DE7436A9A1C1B88426288
:1033D800EB60438D013B9BB24385438D9BB2002B31
:1033E8007FF47AAF6B6823F0A0036B60438E9BB2C7
:1033F800002B7FF471AF012380F84130FFF7D8FE2E
:103408006AE700BF0038004000340040F0B58BB0D8
:10341800002800F0838090F8BD330568044603F067
:10342800FF0233B32846032384F8BD33EB6B2546EC
:1034380013F4807308BF236102F040FC55F810CBE9
:103448002F460FCF6E460FC60FCF0FC697E8030063
:1034580086E80300261D604696E80E0002F066FB2B
:10346800074660B1022384F8BD33012528460BB016
:10347800F0BD80F8BC2304F0D3FE2068D3E70146F2
:10348800206802F023FC606860B339463A464FF082
:10349800010CC1EBC10304EB83034F1C83F83C1000
:1034A800A3F84210F9B2814283F83DC083F83F2067
:1034B800C3E911221A65ECD300221146C2EBC203FC
:1034C80004EB8303571C83F8FC21FAB2824283F889
:1034D800FD1183F8FF11C3F80412C3F80812C3F8EA
:1034E8001012EBD30FCD6F46D4F800C00FC70FCD25
:1034F8000FC795E8030087E80300604696E80E00CA
:1035080002F0FCFB05460028ACD1012384F8380002
:10351800206884F8BD3302F0A9FFA7E701252846F3
:103528000BB0F0BD90F8BC33012B1AD0826A036847
:1035380001218A4210B580F8BC130AD00446184607
:1035480002F088FF206802F0B1FB002084F8BC0379
:1035580010BD82698A42F1D09A6B42F480329A6334
:10356800ECE70220704700BF2DE9F04F066889B0EC
:103578000446304602F0B8FF10B109B0BDE8F08F3C
:103588000546206802F07EFF0028F6D0206802F089
:1035980079FF10F0020F20681EBF436903F0020391
:1035A800436102F06FFF10F0100F206811D083699B
:1035B80023F010038361376AC7F34343022B07F0F4
:1035C8000F085DD0062B00F08382836943F0100357
:1035D800836102F057FF10F4002F206840F0C68185
:1035E80002F050FF10F4802F206840F00A8102F0AA
:1035F80049FF002864DB206802F044FF010530D44D
:10360800206802F03FFFC3046ED4206802F03AFF3E
:1036180010F4005F206840F0DD8002F033FF0707F8
:1036280000F1CF80206802F02DFFC60200F1BF80B4
:10363800206802F027FF850200F1AF80206802F0C1
:1036480021FF400000F1A080206802F01BFF410725
:1036580093D523685D686A070DD45A682A435A606F
:103668008BE7D6F80838DA0726D42068436903F4CC
:1036780000634361C5E7204604F070FE2368ECE769
:1036880047F6F0731F42A0D0C8EBC80804EB8808BF
:10369800C7F30A17D8F808123A46304602F060FE17
:1036A800D8F80812D8F81422206839443A44C8F8DF
:1036B8000812C8F8142288E7204604F027FED4E749
:1036C80094F8F413D6F80428012922F00102C6F868
:1036D800042800F0D181204604F030FE20684369B8
:1036E80003F00043436187E706F500677B682068BD
:1036F80023F0010310217B6002F0D8FB6068F8B169
:1037080006F510634FF67F3199601A6822F40012AB
:103718001A601A6842F000621A60C3F80812D3F8F7
:10372800002222F40012C3F80022D3F80022013547
:1037380042F000628542C3F8002203F12003E3D17E
:10374800FB69226B43F00113FB61002A00F08981B9
:10375800D7F8843043F00B03C7F884307B6C43F010
:103768000B037B64D6F80038217C206823F4FE63C1
:10377800C6F8003804F5717202F0CAFE2068436981
:1037880003F48053436141E7204604F0E3FD2068D9
:10379800436903F08043436157E72046002104F062
:1037A800D1FD2068436903F40013436147E72046CD
:1037B800002104F0CBFD2068436903F480134361C2
:1037C80037E7204604F088FD2068436903F00803C2
:1037D800436128E702F08CFE206802F079FBE06084
:1037E800256800F0F1FD227B0146284602F0E2F947
:1037F800204604F075FD2068436903F400534361D3
:103808000BE702F04BFE80462068B8F1000F3FF44A
:10381800EEAE06F51063CDE90365A3464FF0000A46
:103828001E4607E05FEA58080AF1010A0BF11C0B73
:1038380000F0D38018F0010FF4D05FFA8AF94946F6
:1038480002F03EFE0546E80717D5039B2169D3F829
:10385800340801270AF00F0207FA02F220EA0200F0
:1038680006EB4A12C3F834081346B9429F6000F0C9
:103878000A814946204604F025FD290703D506EBB1
:103888004A1308229A60EA0603D506EB4A13102267
:103898009A606B0603D506EB4A1340229A60AF077D
:1038A80003D506EB4A1302229A6027682D0638468C
:1038B800B8D5DBE914138B42B4D807F5106202EBD4
:1038C8004A121046DBF844200590CD1A95428069CB
:1038D8000697AC4628BF944680B20CF1030CB0EBB7
:1038E8009C0F31D38B4233D291B3CDF81C80DBF8D7
:1038F8004810DDF8148007E0DBF850509D4240F294
:103908002B81DBF84420ED1A954228BF1546237C0D
:1039180000934A46ABB2384602F00CFDD8F818209E
:10392800DBF84810DBF8543029442B4492B20335B5
:10393800B2EB950FCBF84810CBF85430DCD2DDF859
:103948001C802768DBF85010994238463FF66AAF6A
:10395800069B0120D3F834280AF00F0100FA01F180
:1039680022EA01023846C3F834285BE702F08EFDEC
:1039780007462068002F3FF433AE4FF0000806F5E5
:10398800306A04E07F0808F101083FF429AEFB071C
:10399800F8D55FFA88FB594602F088FD814619F090
:1039A800010F206838D119F0080F19D119F0100F3C
:1039B80003D00AEB481310229A6019F0200F03D0A5
:1039C8000AEB481320229A6019F4005FDAD00AEB58
:1039D80048134FF400529A60D4E7DDE9036506E620
:1039E8004FEA48120AEB02030821996000F5306398
:1039F8001344026C5F489968824257D90A0402D579
:103A08004FF400429A60204604F04CFC21690129D9
:103A180000F0A6802068C9E74FEA48130AEB0302C2
:103A2800216900F5306E4FF0010C7344C2F808C0EC
:103A38000129D0F840C09A683DD04F498C455AD0EA
:103A4800B8F1000F07D1D4F8103223B904F5717218
:103A5800414602F05DFD2046594604F029FC2068E5
:103A6800A1E77B6943F4005343F02B037B613B6977
:103A780043F00B033B6175E6002184F8F4132046FC
:103A880000F0EEF92AE6DBE911231344CBF84830BD
:103A9800BAF1000F7FF4EDAE236D002B7FF4E9AE91
:103AA80004F57172206802F033FDE2E6204604F066
:103AB800F9FB20687AE7110724D52E498C457FF653
:103AC80072AF12047FF56FAF4FF400429A606AE755
:103AD800082204F571713046C8EBC80802F040FCB2
:103AE80004EB8802C7F30A13D2F8141220680B44B7
:103AF800C2F8143269E51104E6D49106ABD5202248
:103B08009A60A8E7910631D412F0280F7FF44BAFE2
:103B180018498C4501D91204D6D4C8EBC80204EB65
:103B280082021969D2F80432C1F31201A3EB010C25
:103B3800D2F80812C2F814C20B44C2F80832B8F11D
:103B4800000F88D1D4F81032002B84D104F571729B
:103B5800012102F0DDFC7EE7DDF81C802768F7E62E
:103B680004F57172206802F0D3FC53E720229A60B2
:103B780019E700BF0A30544F0A31544F90F8BC235C
:103B8800012A0DD010B50446012284F8381080F8B7
:103B9800BC23006802F04EFC002084F8BC0310BD72
:103BA80002207047F8B501F00F05C5EBC504C5EB59
:103BB800C50609064FEA840400EB86061ED404F500
:103BC800FE740027011986F8FD714C780D708A6023
:103BD800CB7004B1CD80022B04BF00230B7190F889
:103BE800BC33012B10D00123044680F8BC33006895
:103BF80002F07AF9002084F8BC03F8BD3C340127B0
:103C0800011986F83D70E0E70220F8BD01F00F02C7
:103C180038B50906C2EBC203C2EBC2044FEA8303FC
:103C280000EB840415D403F5FE73C118002584F84D
:103C3800FD510A7090F8BC33012B14D001230446BF
:103C480080F8BC33006802F093F9002084F8BC03C4
:103C580038BD3C33C118012584F83D500A7090F8EE
:103C6800BC33012BEAD1022038BD00BF38B501F0C2
:103C78000F05C5EBC50400EB84040021C4F8082235
:103C8800C4F8141284F8FD11C4F8103284F8FC51F9
:103C980003691C2101FB0501012B08BFC4F80C2294
:103CA80001F5FE710068DAB21DB102F0C1F9002019
:103CB80038BD02F0BFFA002038BD00BF01F00F0187
:103CC800C1EBC10100EB8101D1F81402704700BFBC
:103CD80070B501F00F05C5EBC50400EB84040121A4
:103CE8000026A26484F83D10236584F83C5066657C
:103CF80003691C2101FB0501012B08BFE2643C316B
:103D08000068DAB21DB102F093F9002070BD02F02C
:103D180091FA002070BD00BF38B5436801F00F0567
:103D28009D421FD80B061FD4C1EBC1031C2404FB02
:103D3800010100EB8303002201F5FE7183F8FD21E8
:103D480001230D708B7090F8BC239A421ED0044654
:103D580080F8BC33006802F015FBCDB1002084F870
:103D6800BC0338BD012038BDC5EBC5031C2101FBD0
:103D7800050100EB830301223C3183F83D20012338
:103D88000D708B7090F8BC239A42E0D1022038BDA8
:103D980004F57172217C206802F0BAFBDEE700BFEF
:103DA80038B5436801F00F029A4221D8C2EBC2032A
:103DB800C2EBC20409064FEA830300EB840419D45A
:103DC80003F5FE73C118002584F8FD5100250A701B
:103DD8008D7090F8BC33012B18D00446012380F86D
:103DE800BC33006802F0FAFA84F8BC53284638BDA0
:103DF800012038BD3C33C118012584F83D50002509
:103E08000A708D7090F8BC33012BE6D1022038BDC2
:103E180030B4056812046C6AC1B1AB6A013904EBAD
:103E280013440BD0002303F1400005EB800001335D
:103E38004068DBB28B4204EB1044F4D3403105EB0D
:103E4800810114434C60002030BC70471443AC62BD
:103E5800002030BC704700BF0368002059627047DB
:103E6800704700BF002800F032812DE9F041036857
:103E7800DD0782B004462FD5AC498A6802F00C02EF
:103E8800042A00F0EA808A6802F00C02082A00F08E
:103E9800E0806368B3F5803F00F0E980B3F5A02FB8
:103EA80000F07881A14D2A6822F480322A602A68BD
:103EB80022F480222A60002B40F0DE80FDF73EF8D5
:103EC800064605E0FDF73AF8801B642800F2F28008
:103ED8002B689B03F6D423689F0775D41A0715D55A
:103EE8006369002B00F0A580914B904D01221A6068
:103EF800FDF724F8064605E0FDF720F8801B0228A8
:103F080000F2D8806B6F9B07F6D5236858073BD51E
:103F1800864A136C13F0805340F0DB800193136CD6
:103F280043F080531364136C03F080530193019B97
:103F38000126804D2A68D10540F1AC80A368012B89
:103F480000F0C980052B00F02F81784D2A6F22F0F0
:103F580001022A672A6F22F004022A67002B40F028
:103F6800BF80FCF7EBFF41F28837804606E0FCF79C
:103F7800E5FFA0EB0800B84200F29C802B6F980781
:103F8800F5D4002E40F0DC80A069C8B1674DAA685E
:103F980002F00C02082A00F0D980674A00210228A2
:103FA800116000F00B81FCF7C9FF2C46054604E0C0
:103FB800FCF7C4FF401B02287CD823689B01F7D478
:103FC800002002B0BDE8F081584A916811F00C0F4A
:103FD80024D0916801F00C0108291CD0E368002B5B
:103FE80000F09280554B514D01221A60FCF7A6FF54
:103FF800064604E0FCF7A2FF801B02285AD82B686B
:104008009807F7D52B68226923F0F80343EAC2031F
:104018002B60236862E752685602DFD4434A12686D
:1040280095074BD5E268012A48D0012002B0BDE8C7
:10403800F0813F4A3D4D1360FCF780FF064604E0DF
:10404800FCF77CFF801B022834D86B6F9F07F7D4DE
:104058005BE74A6850027FF51CAF344A1268910347
:104068007FF53AAF6268002A7FF436AFDDE72F4A62
:10407800136843F480331360FCF760FF2B4D06464A
:1040880004E0FCF75BFF801B642813D82B689A03B5
:10409800F7D520E72A6842F480722A60FCF74EFFC1
:1040A80007462B68DA053FF549AFFCF747FFC01B09
:1040B8000228F6D9032002B0BDE8F0811B49206927
:1040C8000A6822F0F80242EAC0020A6006E7012004
:1040D800704700262DE7154A136F43F00103136755
:1040E800FCF72CFF114D804641F2883705E0FCF7BC
:1040F80025FFA0EB0800B842DCD82B6F9B07F6D54C
:10410800002E3FF441AF1BE00C4A084D1360FCF74A
:1041180015FF064604E0FCF711FF801B0228C9D8EA
:104128002B689907F7D42368D8E600BF0038024007
:10413800800E47420070004060004742000047423E
:10414800354A136C23F0805313641DE701283FF4AC
:104158006DAF6B68E26903F4800191427FF465AF4B
:10416800226A03F03F0191427FF45FAF47F6C072C5
:10417800616A1A408A427FF458AFA26A03F4403158
:1041880091427FF452AFE06A03F07063181A18BFC7
:1041980001204BE7204B1A6842F480221A601A6803
:1041A80042F480321A6067E71B4B1A6F42F0040230
:1041B8001A671A6F42F001021A6791E7FCF7BEFE10
:1041C800064605E0FCF7BAFE801B02283FF672AFF0
:1041D8002B689901F6D4D4E90736D4E90902E16AD3
:1041E8000D4C334343EA8013520843EA0163013A12
:1041F8000A4943EA024301226B600A60FCF79EFE0B
:10420800054605E0FCF79AFE401B02283FF652AF30
:1042180023689A01F6D5D3E6003802406000474289
:10422800174908B58B6803F00C03042B1BD0082B27
:1042380017D14A684B6813F4800302F03F0214D187
:1042480049681048C1F38811A1FB0001FCF7ACFCD8
:104258000B4B5B68C3F3014301335B00B0FBF3F026
:1042680008BD084808BD084808BD4B680648C3F3A0
:104278008813A3FB00010023FCF796FCE8E700BFC6
:10428800003802400024F4000080BB0060B1494AB5
:10429800136803F00F038B4208D2CBB21370136874
:1042A80003F00F038B4201D00120704703682DE90A
:1042B800F0419D0714D55C0704D53F4CA26842F431
:1042C800E052A2601A0704D53B4CA26842F460424F
:1042D800A260394C8568A26822F0F0022A43A260E5
:1042E800DF0704460D4622D54268012A57D0931E9F
:1042F800012B314B1B6859D9990725D52E4EB36828
:1043080023F003031343B360FCF718FE41F2883728
:10431800804605E0FCF712FEA0EB0800B84243D83F
:10432800B368626803F00C03B3EB820FF2D1214A41
:10433800136803F00F03AB4209D9EBB2137013688B
:1043480003F00F03AB4202D00120BDE8F0812368DF
:104358005A0706D51849E0688A6822F4E0520243F1
:104368008A601B0712D4FFF75BFF134B134C9B6843
:104378001349144AC3F30313E35C20FA03F30868F0
:104388001360FCF791FD0020BDE8F0810A4A21691D
:10439800936823F4604343EAC1039360E3E7064B61
:1043A8001B689E03AAD4CFE70320EDE79801A5D4A4
:1043B800CAE700BF003C02400038024030A90008AC
:1043C8000400002028010020014B1868704700BF36
:1043D80028010020044B054A9B680549C3F3822342
:1043E8000868D35CD84070470038024040A90008EC
:1043F80028010020F0B50446006810F0050F83B0CE
:104408000AD1850742D410F0080003D0484B227C1B
:104418001A60002003B0F0BD464B474D00221A60D9
:10442800FCF78CFD064604E0FCF788FD801B02289B
:1044380029D82B681B01F7D4D4E901133D4A3E4E15
:104448001B0743EA81130121C5F884301160FCF78A
:1044580075FD054604E0FCF771FD401B022812D8E3
:1044680033681F01F7D52068CBE70D46FCF766FDDA
:1044780041F2883607462B6F9B073AD4FCF75EFD5E
:10448800C01BB042F7D9032003B0F0BD2A4B2B4D17
:10449800002201921A6C42F080521A641B6C03F0DD
:1044A80080530193019B2B6843F480732B60FCF7C6
:1044B80045FD064604E0FCF741FD801B0228E2D8D2
:1044C8002B68D905F7D51C49E3680A6F12F44072C6
:1044D80003F4407010D082420ED00B6F184A23F4B8
:1044E800407301250020156010600B670B6FDA0719
:1044F800BBD4E36803F44070B0F5407F0CD00E499C
:104508008A6822F4F8128A600B4A116FC3F30B030E
:104518000B431367206876E70748826823F07041E9
:1045280022F4F81221F440710A438260ECE700BFDC
:10453800E0114742680047420038024000700040DE
:10454800400E4742012809D1124A936813F4000328
:1045580006D0012B104818BF002070470020704774
:10456800536813F4800F536814BF0B480B4803F0CB
:104578003F03B0FBF3F0074BD3F88420D3F8843023
:10458800C2F3881200FB02F0C3F30273B0FBF3F02E
:10459800704700BF003802400080BB000024F400D0
:1045A8002DE9F04389B005460F46FCF7C7FC002308
:1045B8000646082128680093019301F007F904468C
:1045C80018B1204609B0BDE8F083296D28680904B0
:1045D80001F0CCF904460028F3D14FF0FF3208234C
:1045E8003021069002920393022201230491286845
:1045F800059202A9079301F0D5F8286801F0E8F9B7
:1046080004460028DDD1814640F22A4804E0FCF740
:1046180095FC801B013023D02868436B13EA080FF0
:10462800436B0BD19B02F2D501F0A2F808AB03EB68
:10463800890309F1010943F8200CE8E7190712D4A6
:10464800436B9A0712D4436B9B0612D4DDE9003200
:1046580040F23A5112BA1BBA8163C7E90023B0E7A6
:104668004FF00044ADE708248463AAE7022484637A
:10467800A7E720248463A4E72DE9F04F0D4687B00F
:10468800044616461F46FCF759FC65B3804694F865
:104698003400C0B2012807D0A36B43F00053A363D2
:1046A800012007B0BDE8F08FE26DF31900219342B5
:1046B800A16320D8636C20680322012B84F834207E
:1046C800C1624FF4007118BF760201F07FF8C8B1DB
:1046D80023687A4A9A63A36B01221843A0631046A1
:1046E80084F83420DDE7A36B012043F00063A36363
:1046F80007B0BDE8F08FA36B43F00073A36307B066
:10470800BDE8F08F4FF0FF317A02902304904FF00C
:10471800010A00914FF00209694620680192CDE92B
:104728000239CDF814A001F03DF8574544D9C4F832
:1047380030903146206801F067F8236880BBDDF8C7
:1047480004A040F22A3B07E0FCF7F8FB109BA0EB23
:1047580008009842236878D25A6B12EA0B0F5A6BFA
:1047680031D11204F0D5BAF1000FEDD02E1D05F1AC
:10477800240900E02368184600F0FAFF06F8040C44
:10478800020A030C000E06F8032C06F8023C06F891
:10479800010C0436B145EDD12035AAF1200AD3E742
:1047A800464A9A63A36B012218430023A06384F846
:1047B80034201046236374E7C4F830A031462068DB
:1047C80001F012F8B9E7D6050AD5012F08D9626CAD
:1047D800032A05D0184601F045F823680028DFD1E0
:1047E8005A6B12F008023DD1596B11F0020146D103
:1047F8005A6B90064FD404351BE0BAF1000F1CD059
:1048080000F0B6FF030C020A05F8040C000E05F8C8
:10481800023C05F8032C05F8010CFCF78FFB109BF4
:10482800A0EB08009842AAF1040A05F104052368E0
:104838003DD25A6B92021846DFD440F23A51012217
:104848009963002084F834202BE71C4A9A63A36BF1
:10485800012143F000430022A363032084F83410AD
:1048680022631EE7154A9A63A36B012243F00803EB
:104878000021A363104684F83420216311E70F490F
:104888009963A36B012143F00203A363084684F8EC
:104898003410226305E7094A9A63A36B012243F0A7
:1048A8002003A363104684F834202163F9E6034A01
:1048B8009A63A36B012243F00043D9E7FF05400048
:1048C8002DE9F0470D4688B0044616461F46FCF70A
:1048D80035FB65B3804694F83400C0B2012807D090
:1048E800A36B43F00053A363012008B0BDE8F08731
:1048F800E26DF31900219342A16320D8636C20680C
:104908000322012B84F83420C1624FF4007118BFD0
:10491800760200F05BFFC8B123685E4A9A63A36B16
:1049280001221843A063104684F83420DDE7A36B06
:10493800012043F00063A36308B0BDE8F087A36BD0
:1049480043F00073A36308B0BDE8F0874FF0FF336E
:104958007902CDE90500902202930391012302A96F
:1049680020680492079300F01DFF012F3AD92023F5
:1049780031462363206800F065FF236830BBDDF80B
:104988000CA040F21A3907E0FCF7D8FA109BA0EB0C
:1049980008009842236851D25A6B12EA090F5A6BE1
:1049A80027D15104F0D5BAF1000FEDD005F120065A
:1049B80000E0236855F8042B0192184601A900F07D
:1049C800DBFEB542F5D1AAF1200ADDE7314A9A6348
:1049D800A36B012218430023A06384F834201046F7
:1049E800236382E7102331462363206800F01CFF0D
:1049F800C3E7D2050AD5012F08D9626C032A05D06E
:104A0800184600F02FFF23680028DFD15A6B12F0F8
:104A180008021ED1596B11F0020127D15A6B12F00E
:104A280010022FD01B4A9A63A36B012243F0100394
:104A3800A363104684F83420216356E7154A9A6325
:104A4800A36BA3630122002384F83420032023638B
:104A58004BE7104A9A63A36B012243F00803002135
:104A6800A363104684F8342021633EE7094999631B
:104A7800A36B012143F00203A363084684F83410B2
:104A8800226332E740F23A5501219D63104684F8CB
:104A980034102AE7FF054000426EF0B40346940F35
:104AA800C2F383600C70C2F301654870C2F3074417
:104AB800C2F30720D2B28D70CC7008714A719A6E19
:104AC800150DC2F30344CD800C72C2F3C035C2F396
:104AD80080344D7200208C72C2F34035C2F300342A
:104AE800CD720C734873586C00286CD1D86E40F6A0
:104AF800FC7404EA820242EA90720A61C0F34255E9
:104B0800C0F38244C0F3C232C0F3C267C0F3026686
:104B18000F754E758D75CC750A760A690C7E04F092
:104B2800070402340132A2405A650D7A012405F0C7
:104B38000F05AC40650A02FB05F2C3E916424FF4C3
:104B480000751D66C0F38034C0F3C61200F07F0004
:104B58004C768A76C8761B6FDA0F0A77C3F34175ED
:104B6800C3F38264C3F383524D7700208C77C3F379
:104B78004055CA77C3F30044C3F3C03281F82050CC
:104B880081F82100C3F3803581F8224081F8232081
:104B9800C3F34034C3F3003281F8245081F8254030
:104BA800C3F3812581F82620C3F301240122C3F32E
:104BB800460381F8275081F8284081F8293081F888
:104BC8002A20F0BC704701280CD01A680E4991635E
:104BD8009A6B012142F080529A63084683F8341098
:104BE800F0BC7047D86E120402F47C1242EA1042FC
:104BF8000A610A69013292024FF400745A65C3E9E6
:104C080016421C669EE700BFFF054000F0B5002372
:104C180099B0CDE90A3376220C920AAA044607CA4B
:104C2800256809938DE80700CDE9073307AB0ECB5C
:104C3800284600F081FD18B10125284619B0F0BDBD
:104C4800764E054601272068356000F09BFD3760E9
:104C58002068069500F028FE064640B1012584F834
:104C68003450A36B28461E43A66319B0F0BD2068D4
:104C780000F040FE002840F0A780A76400212068CB
:104C880000F074FE10BB069A4FF6FE739A424CD899
:104C9800634D4FF6FE770BE0206800F07FFD069B22
:104CA80001330693069BBB424FEAD07211D882B9F2
:104CB8000021206800F05AFE294606460028CDD17A
:104CC800206800F063FE01460028E5D04FF08056CA
:104CD800C4E7069A4FF6FE739A422BD8430040F178
:104CE80083800123636401232068ADF8163000F047
:104CF80051FD002875D0626C2368032A1DD118461F
:104D0800042100F04BFD000DE0640DA92046FFF7DB
:104D1800C3FE054600286AD04FF08050012584F86C
:104D28003450A16B0843A06387E7069A4FF6FE73D9
:104D38009A4259D94FF0807690E7184600F05AFE0B
:104D48000028EBD10146206800F028FD04216067A7
:104D5800206800F023FD0821A067206800F01EFDF0
:104D68000C21E067206800F019FD636CC4F880002E
:104D7800032B50D00DF11601206800F057FE0028D3
:104D8800CCD1626C2368032AB9D0BDF8161021650E
:104D98001846090400F03CFE0028BFD101462068EF
:104DA80000F0FCFC04216066206800F0F7FC082194
:104DB800A066206800F0F2FC0C21E066206800F094
:104DC800EDFC236820679AE7A664206800F06CFD74
:104DD800064600287FF442AFA36C012B7FF453AF43
:104DE8004CE74FF0806099E7002363647BE7226D0E
:104DF800206812042B4600F047FD00288ED1231DA1
:104E080054F8106B94E807008DE8070030460ECB85
:104E180000F092FC11E7236871E700BFA0802542EB
:104E2800000010C108B390F8343010B503F0FF0249
:104E3800044673B1032384F834302046FFF7E6FEB6
:104E480028B90123A063206384F8343010BD012001
:104E580010BD027702F098FF032384F8343020460F
:104E6800FFF7D4FE0028ECD0F1E70120704700BF1F
:104E780070B4D0E91142D0E91336456D0C604A6030
:104E8800846D8B60D0E91723C1E90365C1E9054248
:104E98000020CB6170BC704770B5426C0323032AB5
:104EA80080F834308AB0044603680E4629D0B1F53C
:104EB800805F26D0B1F5006F50D000292FD0826BCB
:104EC80042F000628263A56B15BBD4E90512CDE9F7
:104ED800076109920AAA12E9070066680496A6689B
:104EE8000596E66806968DE8070004AE184696E82B
:104EF8000E0000F021FC0123284684F834300AB063
:104F080070BDA26B42F08052A263A56B002DDCD06D
:104F1800254A9A63012084F834000AB070BD184607
:104F2800CDE9041100F03AFC810120D404A92046FF
:104F3800FFF736FB68B9059A2368D20331D5216D8E
:104F48001846090400F012FD18B90146206800F05F
:104F58002FFD2368A26B1043A063D6E700221846F2
:104F68001146CDE9042200F019FC850103D5236818
:104F78004FF40060EEE704A92046FFF711FB002874
:104F8800E7D1059A236850030BD5216D184609040B
:104F980000F0ECFC0028DCD10221206800F008FDBC
:104FA800D7E74FF08060D5E7FF054000016D10B5E9
:104FB80009040446006800F08FFD20B1A16B084386
:104FC800A063002010BD0146206800F0E7FBC0F395
:104FD800432010BDF0B4046AD1F808C00E68124D21
:104FE80024F001040462036A4768826923F002031B
:104FF80022F07302A84243EA0C0342EA060206D0F2
:10500800496847608261F0BC416303627047D1E937
:105018000545CE6823F0080327F4407733432C4333
:1050280023F004032743EBE700000140F0B4046ACF
:10503800D1F808C00E68134D24F480740462036A22
:105048004768C26923F4007322F07302A84243EA56
:105058000C2342EA060206D049684760C261F0BCE8
:10506800C16303627047D1E90545CE6823F4006344
:1050780027F4405743EA06232C4323F4806347EA86
:105088000417E9E700000140F0B4046A8F680E686D
:105098000E4D24F480540462036A4468C26923F400
:1050A800005322F4E642A84243EA073342EA0622C2
:1050B80004D14D6924F4804444EA85144968446065
:1050C800C261F0BC01640362704700BF0000014088
:1050D800704700BF704700BF704700BF704700BFF0
:1050E800704700BF03681A69910710B5044602D5D6
:1050F800DA6892075FD41A69500702D5DA6851074F
:1051080046D41A69120702D5DA6810072ED41A692C
:10511800D20602D5DA68D00618D41A69D10702D5A2
:10512800DA68D2075DD41A69100602D5DA68110662
:105138005FD41A69520602D5DA68500661D41A6932
:10514800910602D5DA68920643D410BD6FF01002BA
:105158001A61DB69082213F4407F2277204664D065
:10516800FFF7BAFF002223682277D6E76FF008021C
:105178001A61DB69042299072277204652D1FFF78A
:10518800A9FF2046FFF7AAFF002223682277BEE77F
:105198006FF004021A619B69022213F4407F2277A0
:1051A80020463CD1FFF796FF2046FFF797FF0022E5
:1051B80023682277A5E76FF002021A619B69012232
:1051C8009B07027725D0FFF787FF00222368227705
:1051D80091E76FF0200220461A61BDE8104000F008
:1051E800C3B96FF001021A612046FFF771FF236807
:1051F80099E76FF080021A61204600F0B7F923683A
:1052080097E76FF040021A612046FFF769FF2368AD
:1052180095E7FFF75FFF2046FFF760FFD5E7FFF749
:105228005BFFC4E7FFF758FFAEE7FFF753FF2046E1
:10523800FFF754FF96E700BFF0B4244D03684E69AA
:105248008C680A68A8422DD0B0F1804F18D0A5F517
:105258007C45A84214D005F58065A84210D005F514
:105268008065A8420CD005F59A35A8420CD005F502
:105278008065A84208D005F58065A84208D103E0FA
:105288004D6823F070032B43C96823F440730B4324
:1052980023F08003334303600123C4628262F0BCBD
:1052A800436170474F68CD6823F070033B4323F494
:1052B80040732B4323F0800333430360C46282624C
:1052C8000B69036301234361F0BC70470000014090
:1052D800B8B190F83D3010B503F0FF0204465BB159
:1052E800022384F83D302068211DFFF7A5FF012324
:1052F80084F83D30002010BD80F83C2002F094FD79
:10530800EEE70120704700BFF0B4046AD1F808C086
:105318000E68134D24F010040462036A476882691A
:1053280023F0200322F4E642A84243EA0C1342EA9F
:10533800062206D0496847608261F0BC8163036237
:105348007047D1E90545CE6823F0800327F440670C
:1053580043EA06132C4323F0400347EA8407E9E7AE
:105368000000014038B590F83C30012B74D00D4650
:1053780002230121044680F83C1080F83D300C2AB5
:1053880019D8DFE802F00718181838181818511833
:1053980018181F0029460068FFF71CFE23682869B3
:1053A800996941F008019961996921F004019961AD
:1053B8009A6902439A610123002084F83D3084F8F9
:1053C8003C0038BD29460068FFF75EFE236828695F
:1053D800D96941F40061D961D96921F48061D96141
:1053E800DA6942EA0022DA610020012384F83D30BC
:1053F80084F83C00E5E729460068FFF785FF236845
:105408002869996941F400619961996921F4806179
:1054180099619A6942EA00229A610020012384F87E
:105428003D3084F83C00CCE729460068FFF7FEFDD4
:1054380023682869D96941F00801D961D96921F03F
:105448000401D961DA690243DA610020012384F892
:105458003D3084F83C00B4E7022038BD03680422DC
:10546800186A01F01F0102FA01F120EA010018622E
:105478001A6A114319625A6C42F400425A649A68D3
:1054880002F00702062A03D01A6842F001021A60E5
:1054980000207047FFF7E2BF90F83C30012B32D074
:1054A8000368022270B480F83D205A680E68174DD0
:1054B8009C6822F070023243AB424FF0010680F83C
:1054C8003C605A6011D0B3F1804F0ED0104A93421D
:1054D8000BD002F58062934207D002F580629342B6
:1054E80003D002F59A32934204D14A6824F080042A
:1054F80014439C600023012280F83D2080F83C3052
:1055080070BC184670470220704700BF0000014079
:105518000004004090F83C30012B21D030B4D1E990
:105528000253D1E9002423F440732B4323F480630E
:10553800234323F40063D1E90454134323F4805331
:105548002B4323F40053C9690268234323F480439F
:105558000B430021536430BC80F83C100846704768
:1055680002231846704700BF704700BF704700BF4E
:10557800124B134A1B68A2FB03235A0A41F28833D1
:10558800014603FB02F313F1FF3311D34A6B12F008
:10559800450FF8D01205F6D44B6B5B070BD4486B5C
:1055A80010F0010015BF0120C52388638B63704785
:1055B8004FF000407047042088637047280100209E
:1055C800D34D62100F4B104A1B68A2FB03235A0AE3
:1055D80041F28833014603FB02F313F1FF330ED384
:1055E8004A6B12F0450FF8D01205F6D4486B10F04C
:1055F800040015BF0420C52388638B6370474FF0F0
:105608000040704728010020D34D6210474B10B46A
:105618001B68474CA4FB03435B0A02FB03F242B13D
:10562800436B13F0450F01D01C0507D5013A002A3A
:10563800F6D14FF000405DF8044B7047436B5B07B1
:1056480010D4436BDC0707D4C52383630369DBB23B
:1056580099420BD00120EEE7012383635DF8044BE8
:1056680018467047042383631846E4E743693148C2
:1056780018400028DFD0002B29DB5A0025D49C00D5
:1056880028D4D90028D41A012CD45C0127D4D901F4
:1056980031D41A022CD45C0227D4990237D4DA0206
:1056A80041D45C033CD4990337D4DA0332D41C04C4
:1056B80027D4590422D49A0426D413F0080F0CBF17
:1056C8004FF480304FF40000B5E74020B3E74FF0C7
:1056D8000070B0E78020AEE74FF48070ABE74FF47E
:1056E8008060A8E74FF40070A5E74FF40050A2E7E8
:1056F8004FF480509FE74FF400609CE74FF4001090
:1057080099E74FF4801096E74FF4800093E74FF441
:10571800804090E74FF400208DE74FF480208AE71F
:105728004FF4003087E74FF4004084E72801002059
:10573800D34D621008E0FFFD84B030B403AC84E8B8
:105748000E000B46DDE90412DDE906540B43134352
:105758002B4342680899234330BC22F4FD420B4393
:1057680022F07F021343436004B00020704700BF5B
:10577800D0F88000704700BF0B68C0F88030002068
:10578800704700BF08B5032303600220FBF7DCFB6A
:10579800002008BD006800F003007047143040582E
:1057A800704700BF30B4D1E90042D1E90235446204
:1057B8000C698262C26A49692B43234322F0F702CB
:1057C8000B431343C36230BC002070478160C36839
:1057D80023F47F6323F00F0343F48A63C36041F229
:1057E80088321021FFF712BF8160C36823F47F63FA
:1057F80023F00F0343F48A6343F00103C36041F2CB
:1058080088321121FFF702BF8160C36823F47F63E8
:1058180023F00F0343F48A6343F00203C36041F2A9
:1058280088321221FFF7F2BE8160C36823F47F63D8
:1058380023F00F0343F48B63C36041F288321821CD
:10584800FFF7E4BE8160C36823F47F6323F00F038E
:1058580043F48B6343F00103C36041F2883219219A
:10586800FFF7D4BE00238360C368064A23F47F632E
:1058780023F00F0343F4896343F00403C3600C214E
:10588800FFF7C4BE00E1F5058260C36823F47F63B7
:1058980023F00F0343F4886343F00703C36041F226
:1058A80088320721FFF7B2BE002383600F4BC2681E
:1058B8000F491B6822F47F62A1FB031322F00F0239
:1058C800590A42F4806241F28833C26003FB01F353
:1058D80002E0426B120605D413F1FF33F9D24FF000
:1058E80000407047C52383630020704728010020CB
:1058F800D34D62104FF4D57383601A4BC2681B688E
:105908000146194822F47F62A0FB030322F00F022C
:10591800580A42F4896241F28833CA6003FB00F3F3
:1059280013F1FF3313D34A6B12F0450FF8D0120569
:10593800F6D44B6B5B0710D4486B10F0010009D10B
:105948004B6B13F040030BD040238B6370474FF031
:1059580000407047012088637047042088637047BF
:105968001846704728010020D34D62108160C36833
:1059780023F47F6323F00F0343F48E6343F007039C
:10598800C36041F288323721FFF740BE41F0004141
:1059980041F480118160C36823F47F6323F00F030F
:1059A80043F48D6343F00103C360FFF70BBE00BFF0
:1059B8008160C36823F47F6323F00F0343F4886393
:1059C80043F00603C36041F288320621FFF71EBE8A
:1059D80000238360C36823F47F6323F00F0343F439
:1059E8008E6343F00303C36041F288323321FFF72B
:1059F8000DBE00BF00238360C36823F47F6323F0D8
:105A08000F0343F4986343F00203C360FFF7B0BD8C
:105A18008160C36823F47F6323F00F0343F4996321
:105A280043F00103C360FFF7A3BD00BF002310B418
:105A38008360C268264B274C1B6822F47F6222F0E1
:105A48000F02A4FB034342F488625C0A42F003029B
:105A580041F28833C26003FB04F313F1FF3311D31F
:105A6800426B12F0450FF8D01205F6D4436B5B0772
:105A780013D4436BDC070AD40369DBB2032B10D0C1
:105A8800012001E04FF000405DF8044B704701230E
:105A980083635DF8044B18467047042383631846F4
:105AA800F2E7C5238363436913F4604009D05A04BD
:105AB8000AD413F4004F0CBF4FF480304FF48050D9
:105AC800E2E71B0C0B80DFE74FF40050DCE700BF78
